:100000000C948F000C94B7000C94B7000C94B700BC
:100010000C94B7000C94B7000C94B7000C94B70084
:100020000C94B7000C943B0D0C94F8090C94670ADF
:100030000C94B7000C94B7000C94B7000C94B70064
:100040000C94B7000C94B7000C94B7000C94B70054
:100050000C94B7000C94B7000C94B7000C94F10CFE
:100060000C94B7000C94BF0C0C94990C0C94B70032
:100070000C94B7000C94B7000C94B7000C94B70024
:100080000C94B7000C94B7000C94B7000C94B70014
:100090000C94B7000C94B7000C94B7000C94B70004
:1000A0000C94B7000C94B7000C94B700080B000236
:1000B0000202000009040000010202000005240001
:1000C0001001052401010104240206052406000193
:1000D0000705810310004009040100020A00000026
:1000E00007050202400000070583024000000403E8
:1000F000090412010002EF02014041234180000186
:100100000102030141726475696E6F204C4C43001B
:1001100041726475696E6F2059756E00780D1124F7
:100120001FBECFEFDAE0DEBFCDBF22E0A2E8B1E034
:1001300001C01D92A53AB207E1F711E0A0E0B1E0DD
:10014000EAE9F1E202C005900D92A238B107D9F7B1
:1001500010E0CFE8D0E004C02197FE010E94D30E4A
:10016000CE38D107C9F70E94D70D0C94CB100C9450
:100170000000FC018091A201882311F13FB7F8949F
:1001800082E08093E9002091F200822F90E018161F
:10019000190614F481E090E0882339F0289844E6A9
:1001A0004093A1014091F1004083222339F0209136
:1001B000F200211103C02BE62093E8003FBF089511
:1001C0008FEF9FEF08952FB7F89483E08093E900B5
:1001D0009091E800892F807295FF04C09091F20001
:1001E00080E4891B2FBF08958091990181110DC072
:1001F00082E08093950184E08093960110929801AB
:100200001092970181E08093990185E991E008952A
:10021000FC01538D448D252F30E0842F90E0821B0C
:10022000930B541710F0CF96089501970895FC0191
:10023000918D828D981761F0A28DAE0FBF2FB11DE9
:100240005D968C91928D9F5F9F73928F90E0089541
:100250008FEF9FEF0895FC01918D828D981731F0FB
:10026000828DE80FF11D858D90E008958FEF9FEF4F
:100270000895FC01918D228D892F90E0805C9F4F25
:10028000821B91098F7399270895FC01A48DA80FF3
:10029000B92FB11DA35ABF4F2C91848D90E00196C8
:1002A0008F739927848FA689B7892C93A089B189E8
:1002B0008C9182748C93938D848D981306C00288E0
:1002C000F389E02D80818F7D80830895EF92FF92E6
:1002D0000F931F93CF93DF93EC0181E0888F9B8D69
:1002E0008C8D981319C0E889F989808185FF14C025
:1002F0009FB7F894EE89FF896083E889F989808146
:10030000827480839FBF81E090E0DF91CF911F9145
:100310000F91FF90EF900895F62E0B8D10E00F5F78
:100320001F4F0F731127E02E8C8D8E110CC00FB64E
:1003300007FCFACFE889F989808185FFF5CFCE01E6
:100340000E944501F1CFEB8DEC0FFD2FF11DE35A1B
:10035000FF4FF0829FB7F8940B8FEA89FB89808169
:100360008062CFCFCF93DF93EC01888D8823B9F0E3
:10037000AA89BB89E889F9898C9185FD03C08081B0
:1003800086FD0DC00FB607FCF7CF8C9185FFF2CF2D
:10039000808185FFEDCFCE010E944501E9CFDF913D
:1003A000CF91089583EF91E00E94390121E0892BDC
:1003B00009F420E0822F089580E090E0892B29F055
:1003C0000E94D20181110C940000089540918F0188
:1003D0005091900120918D0130918E014217530769
:1003E000B4F49091E8009570E1F39091E80092FDEB
:1003F00019C08093F10080918F0190919001019636
:100400008F739927892B19F48EEF8093E8008091E0
:100410008F019091900101969093900180938F01AC
:1004200081E0089580E00895DF92EF92FF920F93AC
:100430001F93CF93DF93D82E8A01EB017B01E40E4B
:10044000F51ECE15DF0559F0D7FE12C0FE018491CE
:100450000E94E60121968111F4CF0FEF1FEFC80132
:10046000DF91CF911F910F91FF90EF90DF90089552
:100470008881EECF0F931F93CF93DF931F92CDB759
:10048000DEB782E0898342E450E06CEA70E080E805
:100490000E9414020E94F400DC0112960D911C913E
:1004A0000115110589F0D801ED91FC910280F381CD
:1004B000E02DBE016F5F7F4FC801099597FD04C015
:1004C000F80100851185ECCF89810F90DF91CF91E4
:1004D0001F910F910895615030F02091F100FC01BF
:1004E00020830196F8CF289884E68093A10108958F
:1004F000AF92BF92CF92DF92EF92FF920F931F9332
:10050000CF93DF936C017B018B01040F151FEB016F
:100510005E01AE18BF08C017D10759F06991D60126
:10052000ED91FC910190F081E02DC6010995892B98
:1005300079F7C501DF91CF911F910F91FF90EF9057
:10054000DF90CF90BF90AF900895CF93DF931F922D
:10055000CDB7DEB76983DC01ED91FC910280F381B8
:10056000E02D41E050E0BE016F5F7F4F09950F9095
:10057000DF91CF91089583E08093E9008091F200AC
:10058000882319F08AE38093E80008950E94E3002D
:1005900090E00895CF93DF931F92CDB7DEB7FC01B3
:1005A0008485958597FD08C02FEF3FEF3587248719
:1005B0000F90DF91CF910895CE0101960E94B9006E
:1005C000019719F4898190E0F3CF8FEF9FEFF0CF7F
:1005D0000F931F93CF93DF931F92CDB7DEB78C019C
:1005E000FC018485958597FF0BC0CE0101960E9482
:1005F000B900019771F4898190E0F80195878487AB
:10060000F801848595850F90DF91CF911F910F910F
:1006100008958FEF9FEFF1CFFC018485958597FDBD
:100620000BC09FB7F89482E08093E9008091F200BC
:100630009FBF90E0019608959FB7F89482E0809361
:10064000E9008091F2009FBF90E008953FB7F894D1
:100650008091890190918A01A0918B01B0918C01C8
:1006600026B5A89B05C02F3F19F00196A11DB11D0D
:100670003FBFBA2FA92F982F8827BC01CD01620F49
:10068000711D811D911D42E0660F771F881F991F04
:100690004A95D1F708958F929F92AF92BF92CF92D1
:1006A000DF92EF92FF924B015C010E9426036B01E7
:1006B0007C010E9426036C197D098E099F09683E02
:1006C000734081059105A8F321E0821A9108A108E1
:1006D000B10888EEC80E83E0D81EE11CF11C81141D
:1006E0009104A104B10429F7FF90EF90DF90CF901F
:1006F000BF90AF909F908F9008958F929F92AF92EE
:10070000BF92CF92DF92EF92FF920F931F93CF93FE
:10071000DF936C017B018A0180910B01882309F42E
:100720005CC08091A201882309F457C08091930195
:1007300080FF05C08091E00082608093E000E801C6
:10074000B12C8AEFA82E93E0892E2AE3922E2097CF
:1007500011F4BB20D9F10E94E30081110AC0AA94D0
:10076000AA20D9F161E070E080E090E00E944B03A4
:10077000EECF8C171D0611F00CF08C2F9FB7F8945C
:100780008092E9002091E80025FD02C09FBFDFCFE5
:10079000282F30E0C21BD30BF701815020F041918C
:1007A0004093F100FACFE20EF31EBB2021F09092AD
:1007B000E800B12CEBCF8091E80085FDE7CF909267
:1007C000E800BB24B394209709F3F3CF5D9884E647
:1007D00080939201101611063CF081E090E0F60142
:1007E0009383828310E000E0C801DF91CF911F91D5
:1007F0000F91FF90EF90DF90CF90BF90AF909F90C0
:100800008F90089508958F929F92AF92BF92CF924A
:10081000DF92EF92FF92CF93DF93EC018FB7F894C2
:100820008090850190908601A0908701B09088010A
:100830008FBF6B01F12CE12C8D819E81DC01ED914C
:10084000FC910284F385E02D099597FF16C02FB720
:10085000F8948091850190918601A0918701B091D3
:1008600088012FBF88199909AA09BB098C159D0514
:10087000AE05BF0508F38FEF9FEFDF91CF91FF909B
:10088000EF90DF90CF90BF90AF909F908F900895A2
:10089000FC01238134812627022E2295207F2025EA
:1008A000032E322F22952F700226269532272327DA
:1008B000220F220F220F20253483238308952F92A5
:1008C0003F924F925F926F927F928F929F92AF92E0
:1008D000BF92CF92DF92EF92FF920F931F93CF932D
:1008E000DF93CDB7DEB72A970FB6F894DEBF0FBE01
:1008F000CDBF9A8789875B01290137011A01200E34
:10090000311E3A82198288248A94982C9A01260FE3
:10091000371F3E832D83C801840D951D98878F83D3
:10092000A985BA8518968C91B981B81708F056C177
:10093000E985FA859482838285819681DC01ED9137
:10094000FC910190F081E02D6FEF09956FEF8985A3
:100950009A850E944804E985FA8585819681DC01A3
:10096000ED91FC910190F081E02DA985BA856C9103
:100970000995E985FA856081CF010E944804A9851F
:10098000BA8515968D919C91DC01ED91FC910190B9
:10099000F081E02D6A8109956A8189859A850E9496
:1009A0004804E985FA8585819681DC01ED91FC9109
:1009B0000190F081E02D622D0995622D89859A853F
:1009C0000E9448048501E985FA8585819681D801D0
:1009D0006D918D01DC01ED91FC910190F081E02D94
:1009E0000995F8013197608189859A850E944804AC
:1009F000ED81FE81E017F10731F78201A985BA8503
:100A000015968D919C91DC01ED91FC910190F08106
:100A1000E02D2F8138852017310761F0D8016D91C5
:100A20008D010995F8013197608189859A850E9429
:100A30004804E4CFA985BA8514966C910995E98597
:100A4000FA8585819681DC01ED91FC910190F08120
:100A5000E02DA985BA8513966C91099568EC70E034
:100A600089859A850E9403048F3F910509F092C001
:100A7000E985FA85948283826FEFCF010E94480452
:100A800065E070E089859A850E940304A985BA858E
:100A90006C916817190609F07DC0CD010E944804C9
:100AA0006AE070E089859A850E9403047C0197FDC5
:100AB00071C0682F89859A850E9448046AE070E0B9
:100AC00089859A850E9403048C0197FD63C0682F75
:100AD00089859A850E944804EC821B82EB81FC8107
:100AE0000E0F1F1FF12CE12C65E070E089859A85BF
:100AF0000E151F05A1F0EC14FD0489F00E940304FB
:100B000097FD09C0F301EE0DFF1D8083682F8985D5
:100B10009A850E944804FFEFEF1AFF0AE5CF0E9472
:100B200003047C0197FD36C065E070E089859A85F5
:100B30000E94030497FD2EC0FE2CEE248E0D9F1DF7
:100B4000A985BA8513962D913C9114978217930726
:100B500009F58C918F5F8C93C801C016D10608F4FB
:100B6000C6012A960FB6F894DEBF0FBECDBFDF9147
:100B7000CF911F910F91FF90EF90DF90CF90BF909A
:100B8000AF909F908F907F906F905F904F903F902D
:100B90002F900895B981BF5FB98364E670E080E06B
:100BA00090E00E944B03E985FA8585819681DC01FE
:100BB000ED91FC910084F185E02D09951816190638
:100BC0000CF0AECEE985FA8585819681DC01ED9148
:100BD000FC910284F385E02D0995E5CF8FEF9FEF1F
:100BE000C0CFAF92BF92CF92DF92EF92FF920F935E
:100BF0001F93CF93DF9300D0CDB7DEB75C01FC012C
:100C000081898823A9F087E7898386858A83D12C07
:100C1000C12CF12CE12C10E000E030E020E042E0BB
:100C200050E0BE016F5F7F4F848595850E945F0411
:100C3000F501118A0F900F90DF91CF911F910F91C5
:100C4000FF90EF90DF90CF90BF90AF900895CF923C
:100C5000DF92EF92FF920F931F93CF93DF9300D019
:100C60001F92CDB7DEB722E72983FC0126852A83B0
:100C7000CC24C394D12C9E012D5F3F4F790110E00D
:100C800000E030E020E042E050E0BE016F5F7F4FC7
:100C9000848595850E945F0481E09B81913009F0F5
:100CA00080E00F900F900F90DF91CF911F910F91E7
:100CB000FF90EF90DF90CF900895AF92BF92CF92C8
:100CC000DF92EF92FF920F931F93CF93DF9300D0A9
:100CD0001F92CDB7DEB7FC01228921111FC05C0134
:100CE000138A8FE4898380E48B8386858A837F01DE
:100CF000F4E1EF0EF11C80E4C82ED12C10E000E0EE
:100D000030E020E043E050E0BE016F5F7F4FF5012F
:100D1000848595850E945F04F501828B0F900F906A
:100D20000F90DF91CF911F910F91FF90EF90DF9087
:100D3000CF90BF90AF900895CF93DF93EC010E94C6
:100D40005D068A89882341F08B89C80FD11D8C8963
:100D500090E0DF91CF9108958FEF9FEFFACFCF937F
:100D6000DF93EC010E945D068A89882369F0815037
:100D70008A8B8B8991E0980F9B8BC80FD11D8C8932
:100D800090E0DF91CF9108958FEF9FEFFACFCF934F
:100D9000DF93EC010E945D068A8990E0DF91CF919C
:100DA0000895CF92DF92EF92FF920F931F93CF930C
:100DB000DF9300D01F92CDB7DEB729E42983FC0171
:100DC00026852A836B83D12CC12CF12CE12C10E0D9
:100DD00000E030E020E043E050E0BE016F5F7F4F75
:100DE000848595850E945F0481E090E00F900F90CC
:100DF0000F90DF91CF911F910F91FF90EF90DF90B7
:100E0000CF90089590E080E008958F929F92AF92E6
:100E1000BF92EF92FF920F931F93CF93DF93CDB7C3
:100E2000DEB7A1970FB6F894DEBF0FBECDBF7C0131
:100E3000FA01CB0119A2223008F42AE08E010F5DDD
:100E40001F4F822E912CB12CA12CBF01A501940122
:100E50000E94B10EF901CA016A3074F5605DD801D3
:100E60006E938D01232B242B252B79F790E080E0C6
:100E7000109789F0FD0101900020E9F73197AF014B
:100E80004A1B5B0BD701ED91FC910280F381E02DB1
:100E9000B801C7010995A1960FB6F894DEBF0FBE41
:100EA000CDBFDF91CF911F910F91FF90EF90BF9039
:100EB000AF909F908F900895695CD1CFFC018081A5
:100EC0009181009711F00C94750F08950F931F9363
:100ED000CF93DF93EC0188819981009759F02A81A3
:100EE0003B812617370730F081E0DF91CF911F91CA
:100EF0000F9108958B016F5F7F4F0E94FE0F009747
:100F000059F0998388831B830A832C813D81232B8D
:100F100059F7FC011082E8CF80E0E7CFEF92FF9213
:100F20000F931F93CF93DF93EC017B01FB010190A3
:100F30000020E9F731978F01061B170BB8010E94BB
:100F4000660728813981811113C02115310519F0F7
:100F5000C9010E94750F198218821D821C821B8292
:100F60001A82DF91CF911F910F91FF90EF9008951A
:100F70001D830C83B701C901DF91CF911F910F91A0
:100F8000FF90EF900C94C410AF92BF92CF92DF927B
:100F9000EF92FF920F931F93CF93DF936C015B014E
:100FA000FC01C785D0890C811D810F5F1F4FB801DF
:100FB000CE010E946607882361F0288139818C81E7
:100FC0009D8165E571E0820F931F0E94C4101D830F
:100FD0000C83F501E080F180E114F104E9F0048173
:100FE000158101151105C1F0F601C785D0898C81E5
:100FF0009D81080F191FB801CE010E946607882342
:1010000059F0288139818C819D81B701820F931F0E
:101010000E94C4101D830C83DF91CF911F910F910B
:10102000FF90EF90DF90CF90BF90AF9008958F9298
:101030009F92AF92BF92CF92DF92EF92FF920F9367
:101040001F93CF93DF937C01EB016C0182E0C80E0C
:10105000D11C4701E5E08E0E911C10E000E0F60186
:1010600041916F0150E070E060E02AE0CE010E9403
:1010700005075C01E881F9810190F081E02D6EE2C5
:10108000CE0109958A0D9B1D080F191FC814D9049C
:1010900031F7F701458150E070E060E02AE0CE01D1
:1010A0000E940507800F911FDF91CF911F910F9133
:1010B000FF90EF90DF90CF90BF90AF909F908F9078
:1010C0000895AF92BF92CF92DF92EF92FF920F936B
:1010D0001F93CF93DF93CDB7DEB7C454D4400FB680
:1010E000F894DEBF0FBECDBF5E0187E1A81A8CEF7A
:1010F000B80AD50113961C921E92129788EE93E0BF
:10110000A0E0B0E0F50184839583A683B78386E1F0
:1011100091E09183808380E992E095878487118AAA
:10112000128A138AC35CDB4F19821882CD53D440D4
:10113000C15CDB4F19821882CF53D440CF5BDB4FA9
:1011400019821882C154D44067E571E0CE01835CF6
:101150009B4F0E948E071A8219821C821B821E825C
:101160001D8263E771E0CE0101960E948E07C501E2
:101170000E94F10586E090E00E94D90E8C01DC010E
:1011800011961C921E9213961C921E9212971596FF
:101190001C921E921497E980FA80E114F104E1F0A8
:1011A000CD80DE80B6010E946607F8012081318182
:1011B00081117BC02115310519F0C9010E94750FFD
:1011C000D80111961C921E9215961C921E9214978D
:1011D00013961C921E921297D50150961C930E9353
:1011E0001F97CE0101960E945E071A8219821C8207
:1011F0001B821E821D826CE771E0CE0101960E9467
:101200008E07BE016F5F7F4FC5010E94C407CE01EC
:1012100001960E945E07BE01635C7B4FC5010E9480
:10122000C40782E5CD5BDB4F8883C354D440D5012E
:101230001F96ED91FC915097048115812081318199
:1012400092E0C92ED12CFE0131967F0141E050E0A1
:10125000BE016D5B7B4F1C968D919C910E945F043B
:101260008A81D5011E968C931E971F960D911C9115
:101270000115110531F0C8010E945E07C8010E94E6
:10128000750FF501108A17868981811102C081E0EE
:10129000818BC5010E942706882371F064E670E007
:1012A00080E090E00E944B03F4CFD582C482B70166
:1012B000C9010E94C41090CF87E5CD5BDB4F8883C6
:1012C000C354D440D5011E968C911E97CC5BDB4F46
:1012D0008883C454D44082E0C82ED12CFE013196BC
:1012E0007F0110E000E030E020E042E050E0BE018D
:1012F0006D5B7B4F1C968D919C910E945F04CE018B
:10130000835C9B4F0E945E07C5010E9427068111E6
:10131000FBCFC5010E945D06D50152968C918823B2
:1013200009F43EC08E010F5F1F4F2FB7F8948091D4
:10133000850190918601A0918701B09188012FBF0E
:10134000F50180879187A287B387C5010E94AF0608
:1013500097FF46C02FB7F894809185019091860140
:10136000A0918701B09188012FBFF501408551857B
:1013700062857385841B950BA60BB70B4481558141
:101380006681778184179507A607B707F0F242E0D8
:1013900050E06FE771E083EA91E00E947D03B9CFEE
:1013A00068E873E180E090E00E944B0386E191E001
:1013B000D5018D939C93C5010E94F105CC5BDB4F59
:1013C0000FB6F894DEBF0FBECDBFDF91CF911F9156
:1013D0000F91FF90EF90DF90CF90BF90AF90089566
:1013E000F80181938F01EA15FB0509F09ECFCFCF5D
:1013F0001F920F920FB60F9211248F939F9380919B
:10140000E1009091E100937F9093E10083FF0FC092
:101410001092E90091E09093EB001092EC0092E3BF
:101420009093ED001092A20198E09093F00082FF5B
:1014300022C093E09093E9009091F200992319F073
:101440009AE39093E80090919201992341F0909152
:101450009201915090939201911101C05D9A9091E7
:10146000A101992341F09091A10191509093A10184
:10147000911101C0289A84FF18C08091E2008E7EED
:1014800081608093E2008091E1008F7E8093E10093
:10149000809193018E7E8061809393019F918F91C3
:1014A0000F900FBE0F901F90189580FFF7CF80917F
:1014B000E2008E7E80618093E2008091E1008E7E6A
:1014C0008093E100809193018E7E8160E5CF1F9231
:1014D0000F920FB60F921124CF92DF92EF92FF92EC
:1014E0000F931F932F933F934F935F936F937F932C
:1014F0008F939F93AF93BF93EF93FF93CF93DF931C
:10150000CDB7DEB76C97DEBFCDBF1092E9008091FA
:10151000E80083FF25C068E0CE0145960E946B027B
:1015200082EF8093E8008D8987FF39C09091E800B1
:1015300090FFFCCF982F907609F034C19E894F8997
:10154000588D2F89F88C911131C0803861F58091C8
:1015500094018093F1001092F1008EEF8093E800E7
:101560006C960FB6F894DEBF0FBECDBFDF91CF9162
:10157000FF91EF91BF91AF919F918F917F916F916B
:101580005F914F913F912F911F910F91FF90EF909D
:10159000DF90CF900F900FBE0F901F9018959EEF89
:1015A0009093E800C7CF1092F100D5CF913059F455
:1015B0008111D3CF4130510581F6809194018D7F07
:1015C00080939401CACF933049F48111C6CF413042
:1015D000510519F6809194018260F2CF953041F463
:1015E0008091E80080FFFCCF20682093E300B5CF16
:1015F000963009F0A9C00B8D1C8D22E01092E900F5
:101600001092900110928F01F2122EC010928E0152
:1016100010928D010E943A021F8299E09983FA820A
:1016200091E09E8390EA98879AEF998720918F01A5
:1016300030919001275F3F4F3C832B838D83109225
:10164000E9001092900110928F0110938E01009387
:101650008D0149E050E0BE016F5F7F4F80E00E9446
:1016600014020E943A0279CF10938E0100938D01EB
:101670000E94F400DC0112960D911C9101151105D8
:1016800009F451C1D801ED91FC910480F581E02D60
:10169000BE016B5E7F4FC8010995009709F03EC1FE
:1016A000F80100851185EACFF3E0FF120EC08F89A3
:1016B000882309F440C0823061F440E86BE080E1A7
:1016C00091E00E94450D811148CF81E28093EB00AB
:1016D00047CF813029F440E86BE084E091E0F1CF1E
:1016E000833099F70E94F400DC011296ED90FC9093
:1016F0008E010F5F1F4F6801E114F10479F0D701EB
:10170000ED91FC910680F781E02DB801C7010995A4
:10171000080F111DF701E084F184EECFD8011C926F
:10172000F60101900020E9F73197BF016C197D099E
:1017300040E0C601C6CF6EEE70E0FB01449150E080
:1017400080E80E94140209CF973009F4BECF983088
:1017500021F481E08093F10000CF993009F0FDCEB3
:10176000837009F0B2CFE5E2F1E081E031E096E389
:101770002191222371F08093E9003093EB00DF0187
:1017800011972C912093EC009093ED008F5F8730A0
:1017900079F78EE78093EA001092EA008F898093B0
:1017A000A201DBCE8B8D9C8D1092E90010929001EE
:1017B00010928F0190938E0180938D01898D8111FC
:1017C00092C08E899D89913A49F4813209F07DCF8A
:1017D00047E050E064E071E080E0B3CF913209F07F
:1017E00074CF833269F48F89988DB0E0A0E0809344
:1017F000000190930101A0930201B0930301ADCECB
:10180000803269F48091E80082FFFCCF67E084E0D9
:1018100091E00E946B028BEF8093E8009ECE8232B3
:1018200009F09BCE8F8980930B01EEEFFFE7859146
:1018300094918B3F9C4D51F1E0E0F8E080910401E0
:1018400090910501A0910601B0910701803B944061
:10185000A105B105F1F480910B0180FD1AC0EE3FA6
:101860008AE0F80789F587E797E79183808380917D
:1018700060008093910188E19BE00FB6F894A895F1
:10188000809360000FBE9093600067CEEEEFFAE0A9
:10189000D5CF808191818737974709F05ECEA89593
:1018A00080916000886180936000809191018093B5
:1018B0006000EE3F2AE0F20789F08091FE0A9091E5
:1018C000FF0A9183808349CE808191818737980771
:1018D00051F29093FF0A8093FE0AC5CF1092FF0A3F
:1018E0001092FE0A3ACE0E94F400DC0112960D918D
:1018F0001C910115110509F4E8CED801ED91FC9178
:101900000190F081E02DBE016B5E7F4FC80109950B
:10191000811123CEF80100851185EBCF1816190629
:101920000CF41BCED2CEF1E0FF12BECE62EF70E01F
:1019300004CF1F920F920FB60F9211242F933F9353
:101940004F935F936F937F938F939F93AF93BF93C7
:10195000EF93FF9383EF91E00E944501FF91EF9198
:10196000BF91AF919F918F917F916F915F914F91B7
:101970003F912F910F900FBE0F901F9018951F92BF
:101980000F920FB60F9211242F938F939F93EF9383
:10199000FF93E0910302F09104028081E09109023B
:1019A000F0910A0282FD1BC0908180910C028F5F32
:1019B0008F7320910D02821741F0E0910C02F0E04C
:1019C000ED50FE4F958F80930C02FF91EF919F9108
:1019D0008F912F910F900FBE0F901F9018958081BF
:1019E000F4CF1F920F920FB60F9211242F933F93B3
:1019F0008F939F93AF93BF938091850190918601C0
:101A0000A0918701B09188013091840123E0230FD8
:101A10002D3758F50196A11DB11D209384018093A7
:101A2000850190938601A0938701B09388018091EE
:101A3000890190918A01A0918B01B0918C0101964E
:101A4000A11DB11D8093890190938A01A0938B0100
:101A5000B0938C01BF91AF919F918F913F912F9146
:101A60000F900FBE0F901F90189526E8230F029637
:101A7000A11DB11DD2CF1F920F920FB60F9211244C
:101A80000F900FBE0F901F901895EF92FF920F933B
:101A90001F93CF93DF93F82E192FE62E042F81E0AA
:101AA000860F880F0E94E60183E00E94E601CF2D99
:101AB000D12FEC0EFD2EF11CCE15DF05B9F007FF7E
:101AC00013C0FE0184910E94E601182F80E00E945D
:101AD000E601812321968111EFCFDF91CF911F91F4
:101AE0000F91FF90EF9008958881EDCF81E0F5CFC1
:101AF000E3EFF1E01382128248EE53E060E070E021
:101B000044835583668377838FE291E0918380835A
:101B10008DEC90E0958784878CEC90E097878687A2
:101B200088EC90E0918B808B89EC90E0938B828B9A
:101B30008AEC90E0958B848B8EEC90E0978B868B73
:101B4000118E128E138E148EA3EAB1E013961C929E
:101B50001E92129714964D935D936D937C931797F5
:101B600081E491E011969C938E938FEF9FEF1D96E9
:101B70009C938E931C97A0E9B2E01C921696FC935E
:101B8000EE93159717961C92179718961C92189714
:101B90001A96FC93EE931997EBE9F2E083E591E056
:101BA000918380831282138214821582089578941F
:101BB00084B5826084BD84B5816084BD85B5826052
:101BC00085BD85B5816085BD80916E008160809303
:101BD0006E0010928100809181008260809381006C
:101BE000809181008160809381008091800081607C
:101BF0008093800080919100826080939100809119
:101C00009100816080939100809190008160809329
:101C100090008091C10084608093C1008091C100D8
:101C200082608093C1008091C10081608093C10077
:101C30008091C30081608093C3008091C000826066
:101C40008093C0008091C20081608093C200809127
:101C50007A00846080937A0080917A008260809319
:101C60007A0080917A00816080937A0080917A0076
:101C7000806880937A001092A201109294011092D1
:101C800093018091D70081608093D70080EA809390
:101C9000D80089B5806189BD89B5826089BD09B4E4
:101CA00000FEFDCF61E070E080E090E00E944B0319
:101CB0008091D8008F7C80618093D8008091E00073
:101CC000807F8093E0008091E1008E7E8093E10030
:101CD0008DE08093E200559A209AC0E0D0E00E9407
:101CE00061082097E1F30E94D2018823C1F30E948A
:101CF0000000F5CF2F923F924F925F926F927F92AA
:101D00008F929F92AF92BF92CF92DF92EF92FF920B
:101D10000F931F93CF93DF93CDB7DEB7CA1BDB0BB7
:101D20000FB6F894DEBF0FBECDBF09942A8839885C
:101D300048885F846E847D848C849B84AA84B98463
:101D4000C884DF80EE80FD800C811B81AA81B9816F
:101D5000CE0FD11D0FB6F894DEBF0FBECDBFED0183
:101D60000895A1E21A2EAA1BBB1BFD010DC0AA1FDC
:101D7000BB1FEE1FFF1FA217B307E407F50720F0F4
:101D8000A21BB30BE40BF50B661F771F881F991F6F
:101D90001A9469F760957095809590959B01AC01B8
:101DA000BD01CF010895EE0FFF1F0590F491E02DC6
:101DB00009940F931F93CF93DF938230910510F412
:101DC00082E090E0E091A302F091A40230E020E0F4
:101DD000B0E0A0E0309799F42115310509F44AC02C
:101DE000281B390B24303105D8F58A819B81611578
:101DF000710589F1FB0193838283FE0111C040814B
:101E000051810281138148175907E0F0481759079B
:101E100099F4109761F012960C93129713961C93F5
:101E20003296CF01DF91CF911F910F9108950093CA
:101E3000A3021093A402F4CF2115310551F04217EB
:101E4000530738F0A901DB019A01BD01DF01F80158
:101E5000C1CFEF01F9CF9093A4028093A302CDCF1D
:101E6000FE01E20FF31F81939193225031093983D0
:101E70002883D7CF2091A1023091A202232B41F4D5
:101E800020910E0130910F013093A2022093A10204
:101E900020910C0130910D012115310541F42DB730
:101EA0003EB74091100150911101241B350BE09178
:101EB000A102F091A202E217F307A0F42E1B3F0B40
:101EC0002817390778F0AC014E5F5F4F24173507AC
:101ED00048F04E0F5F1F5093A2024093A1028193DE
:101EE00091939FCFF0E0E0E09CCFCF93DF930097FA
:101EF000E9F0FC01329713821282A091A302B09103
:101F0000A402ED0130E020E01097A1F4208131819E
:101F1000820F931F2091A1023091A2022817390746
:101F200009F061C0F093A202E093A102DF91CF918A
:101F30000895EA01CE17DF07E8F54A815B819E012B
:101F400041155105B1F7E901FB83EA8349915991A4
:101F5000C40FD51FEC17FD0761F4808191810296B3
:101F6000840F951FE90199838883828193819B83E4
:101F70008A83F0E0E0E012968D919C911397009790
:101F8000B9F52D913C911197CD010296820F931FC7
:101F90002091A1023091A2022817390739F6309713
:101FA00051F51092A4021092A302B093A202A09342
:101FB000A102BCCFD383C28340815181840F951F7E
:101FC000C817D90761F44E5F5F4F88819981480F28
:101FD000591F518340838A819B819383828321157A
:101FE000310509F0B0CFF093A402E093A3029ECF95
:101FF000FD01DC01C0CF13821282D7CFB0E0A0E098
:10200000E4E0F0E10C947C0E8C01009751F4CB01DC
:102010000E94D90E8C01C801CDB7DEB7E0E10C9467
:10202000980EFC01E60FF71F9C0122503109E217C0
:10203000F30708F49DC0D901CD91DC911197C61723
:10204000D70798F0C530D10530F3CE010497861735
:10205000970708F3C61BD70B2297C193D1936D93B3
:102060007C93CF010E94750FD6CF5B01AC1ABD0ADD
:102070004C018C0E9D1EA091A302B091A402512C84
:10208000412CF12CE12C109731F58091A102909117
:10209000A2028815990509F05CC04616570608F09B
:1020A00058C080910C0190910D01009741F48DB7BB
:1020B0009EB74091100150911101841B950BE817B8
:1020C000F90708F055C0F093A202E093A102F901CC
:1020D00071836083A0CF8D919C91119712966C9023
:1020E000129713967C901397A815B90559F56C01B2
:1020F00042E0C40ED11CCA14DB0420F1AC014A1921
:102100005B09DA011296159780F06282738251831F
:102110004083D9016D937C93E114F10471F0D701F0
:102120001396FC93EE93129776CF22968C0F9D1FF9
:10213000F90191838083F301EFCFF093A402E09340
:10214000A30269CF4816590608F42C017D01D3017A
:102150009ACFCB010E94D90E7C01009749F0AE01C5
:10216000B8010E94BB10C8010E94750F870153CFB0
:1021700010E000E050CFFB01DC0102C001900D92A5
:1021800041505040D8F70895FB01DC0101900D92B9
:0A2190000020E1F70895F894FFCF56
:10219A00FFFFFFFF00E10000000000000000A502B1
:1021AA00800000000000D106780202070204C70678
:1021BA00AF069C0600C18081000000000000006696
:1021CA000178020801B201390117012B0100000050
:1021DA0000A5027D03C602BB020C03CA02E8020084
:1021EA000000001708FE006375726C202D642068D9
:1021FA007474703A2F2F3139322E3136382E342EEC
:10220A00312F002F62696E2F617368002D63000DF4
:02221A000A00B8
:00000001FF
