:100000000C94CD000C94F5000C94F5000C94F500C4
:100010000C94F5000C94F5000C94F5000C94F5008C
:100020000C94F5000C94F5000C946D050C94DC0513
:100030000C94F5000C94F5000C94F5000C94F5006C
:100040000C94F5000C94F5000C94F5000C94F5005C
:100050000C94F5000C94F5000C94F5000C940E082B
:100060000C94F5000C94F5000C94F5000C94F5003C
:100070000C94F5000C94F5000C94F5000C94F5002C
:100080000C94F5000C94F5000C94F5000C94F5001C
:100090000C94F5000C94F5000C94F5000C94F5000C
:1000A0000C94F5000C94F5000C94F500000000028F
:1000B00000090F0000030401000C00000000000014
:1000C0000000000000000000000000080B00020219
:1000D00002000009040000010202000005240010D3
:1000E000010524010101042402060524060001077C
:1000F00005810310004009040100020A0000000706
:1001000005020240000007058302400000040309C5
:100110000412010002EF020140032A508000010195
:10012000020301556E6B6E6F776E004172647569E4
:100130006E6F2059C3BA6E204D696E6900000000D1
:1001400000250028002B002E0031000000000024B4
:100150000027002A002D00300004040404040304D6
:100160000502020202040302020202060606060655
:100170000604040202020404040802011040804044
:1001800010204080408008020401804020100201BD
:100190001080102040402000580811241FBECFEFCF
:1001A000DAE0DEBFCDBF11E0A0E0B1E0E2EDF2E1C8
:1001B00002C005900D92A034B107D9F721E0A0E468
:1001C000B1E001C01D92A73CB207E1F710E0CDEC11
:1001D000D0E004C02197FE010E946109CC3CD10708
:1001E000C9F70E948A080C9467090C94000090E0FB
:1001F000FC01E858FE4F2491875A9E4FFC018491E0
:10020000882399F090E0880F991FFC01E55BFE4F71
:10021000A591B491FC01E35CFE4F859194918FB759
:10022000F894EC91E22BEC938FBF0895FC01809140
:100230005E01882311F13FB7F89482E08093E900D2
:100240002091F200822F90E01816190614F481E034
:1002500090E0882339F0289844E640935D0140916E
:10026000F1004083222339F02091F200211103C0D4
:100270002BE62093E8003FBF08958FEF9FEF08958E
:100280002FB7F89483E08093E9009091E800892FDC
:10029000807295FF04C09091F20080E4891B2FBF0B
:1002A00008958091550181110DC082E08093510124
:1002B00084E080935201109254011092530181E026
:1002C0008093550181E591E0089540914B01509153
:1002D0004C012091490130914A0142175307B4F46F
:1002E0009091E8009570E1F39091E80092FD19C0BB
:1002F0008093F10080914B0190914C0101968F7396
:100300009927892B19F48EEF8093E80080914B0197
:1003100090914C01019690934C0180934B0181E0A8
:10032000089580E00895EF92FF920F931F93CF936B
:10033000DF93F82E192FE62E042F81E0860F880F09
:100340000E94650183E00E946501CF2DD12FEC0E44
:10035000FD2EF11CCE15DF05B9F007FF13C0FE011D
:1003600084910E946501182F80E00E94650181231D
:1003700021968111EFCFDF91CF911F910F91FF90C7
:10038000EF9008958881EDCF81E0F5CFDF92EF9275
:10039000FF920F931F93CF93DF93D82E8A01EB0127
:1003A0007B01E40EF51ECE15DF0559F0D7FE12C015
:1003B000FE0184910E94650121968111F4CF0FEF17
:1003C0001FEFC801DF91CF911F910F91FF90EF9028
:1003D000DF9008958881EECF0F931F93CF93DF9323
:1003E0001F92CDB7DEB782E0898342E450E06BEC28
:1003F00070E080E80E94C6010E945101DC01129663
:100400000D911C910115110589F0D801ED91FC9118
:100410000280F381E02DBE016F5F7F4FC801099517
:1004200097FD04C0F80100851185ECCF89810F90FC
:10043000DF91CF911F910F910895615030F020917D
:10044000F100FC0120830196F8CF289884E6809380
:100450005D010895AF92BF92CF92DF92EF92FF922B
:100460000F931F93CF93DF936C017B018B01040FDC
:10047000151FEB015E01AE18BF08C017D10759F078
:100480006991D601ED91FC910190F081E02DC601BA
:100490000995892B79F7C501DF91CF911F910F91B4
:1004A000FF90EF90DF90CF90BF90AF900895CF93E3
:1004B000DF931F92CDB7DEB76983DC01ED91FC912C
:1004C0000280F381E02D41E050E0BE016F5F7F4F7D
:1004D00009950F90DF91CF91089583E08093E90013
:1004E0008091F200882319F08AE38093E800089550
:1004F0000E94400190E00895CF93DF931F92CDB703
:10050000DEB7FC018485958597FD08C02FEF3FEF8E
:10051000358724870F90DF91CF910895CE01019602
:100520000E941601019719F4898190E0F3CF8FEFB3
:100530009FEFF0CF0F931F93CF93DF931F92CDB711
:10054000DEB78C01FC018485958597FF0BC0CE0139
:1005500001960E941601019771F4898190E0F801DB
:1005600095878487F801848595850F90DF91CF91D9
:100570001F910F9108958FEF9FEFF1CFFC018485BC
:10058000958597FD0BC09FB7F89482E08093E900B2
:100590008091F2009FBF90E0019608959FB7F89474
:1005A00082E08093E9008091F2009FBF90E008957F
:1005B000282F30E0F901E455FF4F9491F901E858F4
:1005C000FE4F8491275A3E4FF9012491222309F4CA
:1005D00030C09923E9F091509F30D0F4E92FF0E03A
:1005E000EC50FD4F0C9461092203260303031A0308
:1005F0001E0308030803080329032F0333033703EB
:100600003D0308034103909180009F779093800001
:10061000E22FF0E0EE0FFF1FE35CFE4FA591B491D7
:100620009FB7F894EC91611132C080958E238C9322
:100630009FBF0895909180009F7DE8CF90918000AA
:10064000977FE4CF94B59F7794BDE2CF94B59F7D1B
:10065000FBCF909190009F7790939000D9CF90918D
:1006600090009F7DF9CF90919000977FF5CF90916A
:10067000C0009F779093C000CBCF9091C0009F7D2A
:10068000F9CF9091C200977F9093C200C1CF8E2B7B
:10069000CECF3FB7F8948091450190914601A0914B
:1006A0004701B091480126B5A89B05C02F3F19F01E
:1006B0000196A11DB11D3FBFBA2FA92F982F8827E2
:1006C000BC01CD01620F711D811D911D42E0660FBD
:1006D000771F881F991F4A95D1F708958F929F928F
:1006E000AF92BF92CF92DF92EF92FF924B015C01EB
:1006F0000E9449036B017C010E9449036C197D092A
:100700008E099F09683E734081059105A8F321E099
:10071000821A9108A108B10888EEC80E83E0D81E9D
:10072000E11CF11C81149104A104B10429F7FF908C
:10073000EF90DF90CF90BF90AF909F908F900895F3
:100740008F929F92AF92BF92CF92DF92EF92FF92E1
:100750000F931F93CF93DF936C017B018A018091EC
:100760000B01882309F45CC080915E01882309F4A1
:1007700057C080914F0180FF05C08091E0008260EA
:100780008093E000E801B12C8AEFA82E93E0892E37
:100790002AE3922E209711F4BB20D9F10E94400148
:1007A00081110AC0AA94AA20D9F161E070E080E02A
:1007B00090E00E946E03EECF8C171D0611F00CF036
:1007C0008C2F9FB7F8948092E9002091E80025FDD6
:1007D00002C09FBFDFCF282F30E0C21BD30BF70131
:1007E000815020F041914093F100FACFE20EF31EC8
:1007F000BB2021F09092E800B12CEBCF8091E80073
:1008000085FDE7CF9092E800BB24B394209709F3CD
:10081000F3CF5D9884E680934E01101611063CF0EC
:1008200081E090E0F6019383828310E000E0C8014C
:10083000DF91CF911F910F91FF90EF90DF90CF90BC
:10084000BF90AF909F908F900895089590E080E0C2
:100850000895CF93DF93EC0160E08E810E94D8026F
:1008600061E08E810E94D80260E08E810E94D802F1
:100870008BE891E00197F1F7DF91CF910895CF9246
:10088000DF92EF92FF920F931F93CF93DF936C0150
:100890007C0187E0E80EF11CD0E0C0E0062F10E0FC
:1008A000B8010C2E02C0759567950A94E2F7617045
:1008B000F70181917F010E94D8022196C430D105B1
:1008C00079F7C601DF91CF911F910F91FF90EF90C3
:1008D000DF90CF900C942904CF92DF92EF92FF9299
:1008E0000F931F93CF93DF93EC01F62E642F8C812F
:1008F0000E94D8028D818F3F19F060E00E94D802DB
:100900000F2D10E08F8584FF25C06E0187E0C80E93
:10091000D11CF12CE12CB8010E2C02C07595679505
:100920000A94E2F76170F60181916F010E94D8028A
:10093000FFEFEF1AFF0A88E0E816F10461F7CE0135
:10094000DF91CF911F910F91FF90EF90DF90CF90AB
:100950000C942904B80184E0759567958A95E1F7B0
:10096000CE010E943F046F2DCE01DF91CF911F91E8
:100970000F91FF90EF90DF90CF900C943F0440E0F8
:10098000682F8FEA91E00C946C04CF93DF93823050
:1009900029F49091BE0198609093BE018093C201AA
:1009A0001092C30180E48093C40180E18093C5016B
:1009B00080E58093C6018091B3010E94F700809189
:1009C000B4018F3F11F00E94F7008091B5010E94A1
:1009D000F700CFEAD1E09E012F5A31408091BE014D
:1009E00084FD0AC084E090E02196281739073CF482
:1009F0008E810E94F700EFCF88E090E0F5CF8BE387
:100A00009DE00197F1F760E08091B3010E94D80268
:100A100060E08091B5010E94D8028091B4018F3FBF
:100A200019F060E00E94D8028091BE0184FD39C0B7
:100A300063E08FEA91E00E943F04CBE4D6E4CE016C
:100A40000197F1F763E08FEA91E00E943F0421975C
:100A5000F1F763E08FEA91E00E943F0483E592E0C2
:100A60000197F1F762E08FEA91E00E943F048091E4
:100A7000BE0180620E94BF0484E08093BF018CE0CD
:100A80000E94BF0481E00E94BF048BE39FE10197B5
:100A9000F1F782E08093C00186E0DF91CF910C9462
:100AA000BF0480620E94BF048BE496E40197F1F7D3
:100AB0008091BE0180620E94BF0483E592E00197AD
:100AC000F1F78091BE0180620E94BF04D0CF41E067
:100AD0000E946C0481E090E008951F920F920FB67F
:100AE0000F9211248F939F938091E1009091E100E8
:100AF000937F9093E10083FF0FC01092E90091E093
:100B00009093EB001092EC0092E39093ED00109222
:100B10005E0198E09093F00082FF22C093E09093F2
:100B2000E9009091F200992319F09AE39093E8007C
:100B300090914E01992341F090914E0191509093E4
:100B40004E01911101C05D9A90915D01992341F090
:100B500090915D01915090935D01911101C0289A8F
:100B600084FF18C08091E2008E7E81608093E20055
:100B70008091E1008F7E8093E10080914F018E7E15
:100B8000806180934F019F918F910F900FBE0F90C6
:100B90001F90189580FFF7CF8091E2008E7E8061D4
:100BA0008093E2008091E1008E7E8093E10080914D
:100BB0004F018E7E8160E5CF1F920F920FB60F928C
:100BC0001124CF92DF92EF92FF920F931F932F93F6
:100BD0003F934F935F936F937F938F939F93AF93C5
:100BE000BF93EF93FF93CF93DF93CDB7DEB76C97AF
:100BF000DEBFCDBF1092E9008091E80083FF25C0E1
:100C000068E0CE0145960E941D0282EF8093E800C5
:100C10008D8987FF39C09091E80090FFFCCF982F15
:100C2000907609F034C19E894F89588D2F89F88CB0
:100C3000911131C0803861F5809150018093F100AD
:100C40001092F1008EEF8093E8006C960FB6F89446
:100C5000DEBF0FBECDBFDF91CF91FF91EF91BF916E
:100C6000AF919F918F917F916F915F914F913F9144
:100C70002F911F910F91FF90EF90DF90CF900F90E9
:100C80000FBE0F901F9018959EEF9093E800C7CF6E
:100C90001092F100D5CF913059F48111D3CF41306A
:100CA000510581F6809150018D7F80935001CACF0C
:100CB000933049F48111C6CF4130510519F6809126
:100CC00050018260F2CF953041F48091E80080FFBE
:100CD000FCCF20682093E300B5CF963009F0A9C07F
:100CE0000B8D1C8D22E01092E90010924C011092A5
:100CF0004B01F2122EC010924A01109249010E943B
:100D0000EC011F8299E09983FA8291E09E8390EA38
:100D100098879AEF998720914B0130914C01275F7A
:100D20003F4F3C832B838D831092E90010924C013E
:100D300010924B0110934A010093490149E050E0A1
:100D4000BE016F5F7F4F80E00E94C6010E94EC01F0
:100D500079CF10934A01009349010E945101DC01AF
:100D600012960D911C910115110509F451C1D8017C
:100D7000ED91FC910480F581E02DBE016B5E7F4F0B
:100D8000C8010995009709F03EC1F8010085118559
:100D9000EACFF3E0FF120EC08F89882309F440C028
:100DA000823061F440E861E18BE291E00E949301BE
:100DB000811148CF81E28093EB0047CF813029F445
:100DC00040E867E083E291E0F1CF833099F70E9439
:100DD0005101DC011296ED90FC908E010F5F1F4FC8
:100DE0006801E114F10479F0D701ED91FC910680DE
:100DF000F781E02DB801C7010995080F111DF70112
:100E0000E084F184EECFD8011C92F601019000201D
:100E1000E9F73197BF016C197D0940E0C601C6CFE3
:100E20006DE071E0FB01449150E080E80E94C60152
:100E300009CF973009F4BECF983021F481E0809338
:100E4000F10000CF993009F0FDCE837009F0B2CFE8
:100E5000EDE0F1E081E031E096E32191222371F0B1
:100E60008093E9003093EB00DF0111972C912093E0
:100E7000EC009093ED008F5F873079F78EE78093D9
:100E8000EA001092EA008F8980935E01DBCE8B8DA1
:100E90009C8D1092E90010924C0110924B0190939E
:100EA0004A0180934901898D811192C08E899D8963
:100EB000913A49F4813209F07DCF47E050E064E097
:100EC00071E080E0B3CF913209F074CF833269F4DE
:100ED0008F89988DB0E0A0E080930001909301018C
:100EE000A0930201B0930301ADCE803269F48091EA
:100EF000E80082FFFCCF67E084E091E00E941D02E1
:100F00008BEF8093E8009ECE823209F09BCE8F89D2
:100F100080930B01EEEFFFE7859194918B3F9C4D01
:100F200051F1E0E0F8E08091040190910501A09179
:100F30000601B0910701803B9440A105B105F1F491
:100F400080910B0180FD1AC0EE3F8AE0F80789F519
:100F500087E797E7918380838091600080934D01BC
:100F600088E19BE00FB6F894A895809360000FBECF
:100F70009093600067CEEEEFFAE0D5CF808191814B
:100F80008737974709F05ECEA89580916000886109
:100F90008093600080914D0180936000EE3F2AE0D5
:100FA000F20789F08091FE0A9091FF0A9183808375
:100FB00049CE808191818737980751F29093FF0A3B
:100FC0008093FE0AC5CF1092FF0A1092FE0A3ACE15
:100FD0000E945101DC0112960D911C910115110521
:100FE00009F4E8CED801ED91FC910190F081E02D5B
:100FF000BE016B5E7F4FC8010995811123CEF801B8
:1010000000851185EBCF181619060CF41BCED2CE35
:10101000F1E0FF12BECE61E171E004CF1F920F92AA
:101020000FB60F9211242F933F938F939F93AF93FB
:10103000BF938091410190914201A0914301B091F1
:1010400044013091400123E0230F2D3758F50196DC
:10105000A11DB11D20934001809341019093420155
:10106000A0934301B09344018091450190914601C2
:10107000A0914701B09148010196A11DB11D809337
:10108000450190934601A0934701B0934801BF9159
:10109000AF919F918F913F912F910F900FBE0F9025
:1010A0001F90189526E8230F0296A11DB11DD2CFDF
:1010B000EFE5F1E01382128288EE93E0A0E0B0E069
:1010C00084839583A683B78387E191E091838083AE
:1010D0008FEF9FEF95878487EFEAF1E0138212820A
:1010E00089E291E0918380838AE084838FEF858316
:1010F00089E0868385E0878384E0808783E0818739
:1011000082E082871386148615861686178681E00C
:101110000C94C504789484B5826084BD84B58160E4
:1011200084BD85B5826085BD85B5816085BD8091B2
:101130006E00816080936E0010928100809181002A
:101140008260809381008091810081608093810022
:101150008091800081608093800080919100826006
:1011600080939100809191008160809391008091A3
:1011700090008160809390008091C1008460809392
:10118000C1008091C10082608093C1008091C10044
:1011900081608093C1008091C30081608093C3000F
:1011A0008091C00082608093C0008091C200816005
:1011B0008093C20080917A00846080937A0080914D
:1011C0007A00826080937A0080917A0081608093B7
:1011D0007A0080917A00806880937A0010925E0194
:1011E0001092500110924F018091D700816080933E
:1011F000D70080EA8093D80089B5806189BD89B520
:10120000826089BD09B400FEFDCF61E070E080E03E
:1012100090E00E946E038091D8008F7C8061809363
:10122000D8008091E000807F8093E0008091E10011
:101230008E7E8093E1008DE08093E200559A209AA3
:101240008FEF9FEF90936C0180936B0182E00E947F
:10125000C504E1E08091C2018111E0E0E195F0E098
:10126000E155FE4F848980680E94BF0449E050E048
:1012700061E371E08FEA91E00E942A02E091C201ED
:10128000E230E8F4E150F0E0E155FE4F84898068F7
:101290000E94BF0443E050E06BE371E08FEA91E00D
:1012A0000E942A02C0E0D0E068EE73E080E090E0A7
:1012B0000E946E032097C1F30E940000F5CFE1E089
:1012C000E2CFEE0FFF1F0590F491E02D0994F89402
:0212D000FFCF4E
:1012D200FFFFFFFF00E100000000000000C180816D
:1012E200000000000000005702A00378026D02BE59
:1012F200027C029A020000000067052A02260425E9
:101302000473656E642068656C7000706C73000015
:00000001FF
