:020000040000FA
:100000000C945D000C9485000C9485000C94850084
:100010000C9485000C9485000C9485000C9485004C
:100020000C9485000C9485000C9485000C9485003C
:100030000C9485000C9485000C9485000C9485002C
:100040000C9468190C9485000C9436190C941019B2
:100050000C9485000C9485000C9485000C9485000C
:100060000C9485000C94850000000008000201003B
:100070000003040700000000000000000000000072
:10008000250028002B0000000000240027002A0083
:10009000040404040404040402020202020203032E
:1000A0000303030301020408102040800102040836
:1000B0001020010204081020B21911241FBECFEF36
:1000C000D8E0DEBFCDBF13E0A0E0B1E0E6ECFCE499
:1000D00002C005900D92A834B107D9F725E0A8E435
:1000E000B3E001C01D92AE38B207E1F710E0CDE5F4
:1000F000D0E004C02197FE010E944322CC35D107F5
:10010000C9F70E94831A0C9461260C94000090E0B9
:10011000FC01EC55FF4F249180579F4FFC018491C7
:10012000882399F090E0880F991FFC01EA57FF4F50
:10013000A591B491FC01E458FF4F859194918FB73C
:10014000F894EC91E22BEC938FBF08958CBD9DBD8C
:10015000089520E3FC0120833296862F82958F70CC
:100160006F706A3030F4605D6293682F8111F5CF53
:100170000895695CF9CFFC01818D928D08950895F1
:10018000AF92BF92CF92DF92EF92FF920F931F93A5
:10019000CF93DF936C017B018B01040F151FEB01E3
:1001A0005E01AE18BF08C017D10759F06991D6019A
:1001B000ED91FC910190F081E02DC6010995892B0C
:1001C00079F7C501DF91CF911F910F91FF90EF90CB
:1001D000DF90CF90BF90AF900895FC01538D448D78
:1001E000252F30E0842F90E0821B930B541710F0E2
:1001F000CF96089501970895FC01918D828D9817EF
:1002000061F0A28DAE0FBF2FB11D5D968C91928DC6
:100210009F5F9F73928F90E008958FEF9FEF0895F7
:10022000FC01918D828D981731F0828DE80FF11DC0
:10023000858D90E008958FEF9FEF0895FC01918DDB
:10024000228D892F90E0805C9F4F821B91098F73D4
:10025000992708958EE794E00E941E0121E0892BE2
:1002600009F420E0822F089580E090E0892B29F0A6
:100270000E942A0181110C9400000895FC01A48DB4
:10028000A80FB92FB11DA35ABF4F2C91848D90E0B8
:1002900001968F739927848FA689B7892C93A0899B
:1002A000B1898C91837080648C93938D848D981325
:1002B00006C00288F389E02D80818F7D80830895B8
:1002C000EF92FF920F931F93CF93DF93EC0181E0A6
:1002D000888F9B8D8C8D98131AC0E889F98980814D
:1002E00085FF15C09FB7F894EE89FF896083E88980
:1002F000F98980818370806480839FBF81E090E072
:10030000DF91CF911F910F91FF90EF900895F62EFE
:100310000B8D10E00F5F1F4F0F731127E02E8C8D98
:100320008E110CC00FB607FCFACFE889F9898081DD
:1003300085FFF5CFCE010E943E01F1CFEB8DEC0F92
:10034000FD2FF11DE35AFF4FF0829FB7F8940B8FFA
:10035000EA89FB8980818062CFCFCF93DF93EC0164
:10036000888D8823B9F0AA89BB89E889F9898C919D
:1003700085FD03C0808186FD0DC00FB607FCF7CF59
:100380008C9185FFF2CF808185FFEDCFCE010E9459
:100390003E01E9CFDF91CF91089590E0FC01E8594B
:1003A000FF4F2491FC01EC55FF4F3491FC01E057C5
:1003B000FF4FE491EE23C9F0222339F0233001F1FD
:1003C000A8F4213019F1223029F1F0E0EE0FFF1FDF
:1003D000E458FF4FA591B4918FB7F894EC91611157
:1003E00026C030953E233C938FBF08952730A9F057
:1003F0002830C9F0243049F7809180008F7D03C0F8
:10040000809180008F7780938000DFCF84B58F77D5
:1004100084BDDBCF84B58F7DFBCF8091B0008F771B
:100420008093B000D2CF8091B0008F7DF9CF3E2B6A
:10043000DACF3FB7F89480915B0390915C03A09171
:100440005D03B0915E0326B5A89B05C02F3F19F050
:100450000196A11DB11D3FBFBA2FA92F982F882744
:10046000BC01CD01620F711D811D911D42E0660F1F
:10047000771F881F991F4A95D1F708958F929F92F1
:10048000AF92BF92CF92DF92EF92FF924B015C014D
:100490000E9419026B017C010E9419026C197D09EE
:1004A0008E099F09683E734081059105A8F321E0FC
:1004B000821A9108A108B10888EEC80E83E0D81E00
:1004C000E11CF11C81149104A104B10429F7FF90EF
:1004D000EF90DF90CF90BF90AF909F908F90089556
:1004E0002FB7F89460915703709158038091590386
:1004F00090915A032FBF0895FC0120812EBD9B01CE
:100500002150310941F051810DB407FEFDCF4EB5A8
:100510005EBD4193F5CF61507109860F971F0DB4F1
:1005200007FEFDCF2EB5FC0120830895E091510315
:10053000F0915203808190915003892B808308951C
:10054000E0915103F0915203908180915003809586
:100550008923808308958EBD00000DB407FEFDCF72
:100560008EB50895AF92BF92CF92DF92EF92FF9235
:100570000F931F93CF93DF93CDB7DEB728970FB6B6
:10058000F894DEBF0FBECDBF8C017B016A01809164
:100590007D048333E1F45801A40EB51EA016B10604
:1005A00009F46FC00E94A00280EF0E94AB02812F6D
:1005B0000E94AB02802F0E94AB020F5F1F4FF7011A
:1005C00081917F010E94AB020E949602E7CF5B01FE
:1005D000A40EB51E8433C1F40E94A00219830A83BD
:1005E0008D2D80688B83CC8264E070E0CE01019613
:1005F0000E947C02AE14BF0409F441C0F70181914E
:100600007F010E94AB02F6CF0E94A0020F3F1105AE
:1006100009F028F419820A8384E08B830CC017FD4B
:1006200017C019820A8333E0169507953A95E1F7CA
:10063000007E0C600B8386E0C816D104A0F5F7019C
:10064000DE011496EA15FB0599F081918D93FACF9E
:10065000C80126E0969587952A95E1F7807E198353
:100660000A830115104C10F48461D7CF8C61D5CF6B
:10067000B6016D5F7F4FCE0101960E947C020E9401
:100680009602C60128960FB6F894DEBF0FBECDBF06
:10069000DF91CF911F910F91FF90EF90DF90CF905E
:1006A000BF90AF90089563E070E0CE0101960E9484
:1006B0007C02F70181917F010E94AB02AE14BF045E
:1006C000C1F7DDCFCF93DF931F92CDB7DEB789831C
:1006D00041E050E0BE016F5F7F4F90E080E00E94FC
:1006E000B2020F90DF91CF91089590E020917D04A8
:1006F000233339F40C96982F990F990F990F80E0B6
:1007000008954896F8CFDA01E0915403F0E0FE2F07
:10071000EE27E60FF71F90E0982F8827A901BD016B
:100720008E0F9F1F0C94B202CF93DF9300D0CDB7F2
:10073000DEB779836A8322E030E0AE014F5F5F4F1E
:1007400060E170E00E9483030F900F90DF91CF91E2
:100750000895CF93DF9300D0CDB7DEB779836A8356
:1007600022E030E0AE014F5F5F4F64E070E00E9436
:1007700083030F900F90DF91CF910895CF93DF9374
:100780001F92CDB7DEB72091540330E0322F2227DD
:10079000260F371F90E0982F8827498341E050E0CB
:1007A000BE016F5F7F4F820F931F0E94B2020F90B6
:1007B000DF91CF910895CF93DF931F92CDB7DEB72E
:1007C0006983DC01ED91FC910280F381E02D41E031
:1007D00050E0BE016F5F7F4F09950F90DF91CF9181
:1007E0000895FC019485FB018485981303C081E082
:1007F000943008F080E00895CF93DF931F92CDB737
:10080000DEB76983DC01ED91FC910280F381E02D7C
:1008100041E050E0BE016F5F7F4F09950F90DF917F
:10082000CF91089544E050E0BC018FE090E00C943B
:10083000B2020895FF920F931F93CF93DF93EB01C2
:10084000FC01178A168A2A81211109C02B812111E6
:1008500006C02C81211103C02D81222301F14115F5
:100860005105E9F08A01FC01F08C80E591E00E94DD
:10087000A600AE014E5F5F4F24E030E06CE070E018
:100880008F2D0E948303B8018F2D0E94940381E075
:1008900090E0DF91CF911F910F91FF90089580E03C
:1008A000F7CFFC01848595850895FC01848995899D
:1008B00008952BEA31E0FC0131832083FB0140895C
:1008C000518962897389FC014283538364837583F0
:1008D0000895DC01ED91FC91048CF58DE02D0994D7
:1008E000089590E080E00895FC017687658708957B
:1008F000DC01ED91FC9102A0F3A1E02D099591E0BE
:1009000089270895862F089581E08627089521E09C
:10091000FC018485843008F020E0822F089508953A
:10092000CF93DF93EC0160E08E810E94CD0161E006
:100930008E810E94CD0160E08E810E94CD018BE806
:1009400091E00197F1F7DF91CF910895CF92DF9277
:10095000EF92FF920F931F93CF93DF936C017C0173
:1009600087E0E80EF11CD0E0C0E0062F10E0B801EF
:100970000C2E02C0759567950A94E2F76170F70135
:1009800081917F010E94CD012196C430D10579F774
:10099000C601DF91CF911F910F91FF90EF90DF90F3
:1009A000CF900C949004CF92DF92EF92FF920F932E
:1009B0001F93CF93DF93EC01F62E642F8C810E945E
:1009C000CD018D818F3F19F060E00E94CD010F2D88
:1009D00010E08F8584FF25C06E0187E0C80ED11C12
:1009E000F12CE12CB8010E2C02C0759567950A9484
:1009F000E2F76170F60181916F010E94CD01FFEF76
:100A0000EF1AFF0A88E0E816F10461F7CE01DF91E2
:100A1000CF911F910F91FF90EF90DF90CF900C94AA
:100A20009004B80184E0759567958A95E1F7CE0149
:100A30000E94A6046F2DCE01DF91CF911F910F91DF
:100A4000FF90EF90DF90CF900C94A60440E0682FC9
:100A50008CE695E00C94D30481E00E9426058BE39C
:100A60009FE10197F1F70895CF93DF93823029F446
:100A700090917B05986090937B0580937F05109201
:100A8000800580E48093810580E18093820580E584
:100A900080938305809170050E9487008091710585
:100AA0008F3F11F00E948700809172050E9487009D
:100AB000CCE6D5E09E012C56354080917B0584FD27
:100AC0000AC084E090E02196281739073CF48E8113
:100AD0000E948700EFCF88E090E0F5CF8BE39DE0A8
:100AE0000197F1F760E0809170050E94CD0160E010
:100AF000809172050E94CD01809171058F3F19F0A0
:100B000060E00E94CD0180917B0584FD34C063E0EC
:100B10008CE695E00E94A604CBE4D6E4CE010197D2
:100B2000F1F763E08CE695E00E94A6042197F1F7C7
:100B300063E08CE695E00E94A60483E592E00197CD
:100B4000F1F762E08CE695E00E94A60480917B05B7
:100B500080620E94260584E080937C058CE00E94E0
:100B600026050E942C0582E080937D0586E0DF91BA
:100B7000CF910C94260580620E9426058BE496E4B2
:100B80000197F1F780917B0580620E94260583E53D
:100B900092E00197F1F780917B0580620E94260523
:100BA000D5CF90917F05691710F06FEF690FE62F91
:100BB000F0E0E459FA4F9489890F80680C94260577
:100BC00041E00E94D30481E090E00895AF92BF928B
:100BD000CF92DF92EF92FF920F931F93CF93DF9309
:100BE00000D000D0CDB7DEB78C016B017A018091C7
:100BF0007D048333E9F45B016801C40ED51EC01681
:100C0000D106A9F10E94A0028FE00E94AB02812FC1
:100C10000E94AB02802F0E94AB020F5F1F4F80E04B
:100C20000E94AB02F50181935F010E949602E7CF1B
:100C3000843369F50E94A00219830A838F2D8F7770
:100C40008B83EC8264E070E0CE0101960E947C020E
:100C5000A70170E060E0C6010E947B23E114F1046B
:100C600021F0B701C6010E947C020E949602C701D2
:100C70000F900F900F900F90DF91CF911F910F91D8
:100C8000FF90EF90DF90CF90BF90AF9008950E94BB
:100C9000A0020F3F110509F030F419820A831B826C
:100CA00063E070E0D1CF17FD0BC019820A8333E0F7
:100CB000169507953A95E1F7007E08600B83F0CF13
:100CC000C80126E0969587952A95E1F7807E1983DD
:100CD0000A830115104C18F480618B83E1CF886181
:100CE000FCCF1F93CF93DF931F92CDB7DEB7182FA2
:100CF00080E591E00E94A600812F0E94750327E005
:100D0000129FF0011124EF59FB4F2281338137707C
:100D100041E050E0BE016F5F7F4F820F931F0E9442
:100D2000E60589810F90DF91CF911F910895FC0115
:100D3000808D843040F4218D328D232B21F00E9450
:100D4000710690E008958FEF9FEF0895CF93DF93A2
:100D5000FC012485243028F08FEF9FEFDF91CF91A5
:100D60000895EC010190F081E02D0084F185E02DE3
:100D70000995892B89F38C850E94710690E0EECF4E
:100D8000CF93DF931F92CDB7DEB741E050E0BE01B5
:100D90006F5F7F4F0E94E60589810F90DF91CF91B1
:100DA000089590E080E00C94C006CF93DF93C4E1F7
:100DB000D0E00E94D106882361F061E070E080E01D
:100DC00090E00E943E022197A1F780E0DF91CF9151
:100DD000089581E0FBCFDF92EF92FF920F931F9374
:100DE000CF93DF9300D0CDB7DEB78091550381114B
:100DF0000FC160E372E080E090E00E943E02DFB647
:100E0000F8940AE910E03EEAE32E30E0F32E8091F8
:100E10005303811122C0F8018491F7019491E82FC6
:100E2000F0E0EE0FFF1FEA57FF4FA591B4918C91B0
:100E3000982321F461E08AE00E94CD018AE00E94BB
:100E400087008CB580618CBD8CB580648CBD8DE0D5
:100E50000E9487008BE00E948700809153038F5F80
:100E600080935303DFBEF8010491E02FF0E0EE0F12
:100E7000FF1FE458FF4F8591949190935203809304
:100E80005103F701E490E09250038AE00E9487004A
:100E90000E94960280E591E00E94A60084E3809380
:100EA0007D0480E80E9462030E94D506882309F42D
:100EB00041C088E00E9462030E94D1068830D1F5CB
:100EC00080E10E9462030E94D106803199F580E0A2
:100ED0000E9462030E94D106182F81112BC08FE15E
:100EE00090E00E94C006833029F580E4809354038B
:100EF00042E06EE170E0812F0E94BE0342E06FE1AC
:100F000070E0812F0E94BE031F5F143089F740E01C
:100F10006EE170E0812F0E94BE0340E06FE170E05F
:100F2000812F0E94BE031F5F183089F781E08093F4
:100F3000550364C087E380937D0480E80E946203C8
:100F40000E94D5068823F9F088E00E9462030E947F
:100F5000D1068830C1F480E10E9462030E94D1066C
:100F6000182F803181F480E00E9462030E94D10634
:100F7000811109C089E390E00E94C006843019F411
:100F800010935403D3CF83E380937D0480E80E94C1
:100F900062030E94D506882371F180E10E946203FA
:100FA0000E94D106803139F582E10E9462030E94DD
:100FB000D106823101F580E00E9462030E94D106D1
:100FC000811119C084E08093540315E51A8341E030
:100FD00050E0BE016E5F7F4F8BE190E00E94B20255
:100FE000198341E050E0BE016F5F7F4F8AE190E0DE
:100FF0000E94B2029BCF10927D0480E00F900F9070
:10100000DF91CF911F910F91FF90EF90DF900895A6
:1010100081E0F4CFCF92DF92EF92FF920F931F9374
:10102000CF93DF93CDB7DEB7E0970FB6F894DEBF6E
:101030000FBECDBFFB01DC0112964D915D916D910C
:101040007C9115974DA75EA76FA778AB31E038ABC1
:101050008DA59EA5AFA5B8A98B8F9C8FAD8FBE8F98
:10106000C280D380E480F5808BEA91E09C8B8B8BEF
:101070002FEF2D8B2E8B2F8B188E9E878D873E8F7B
:101080000B8D1C8D2D8D3E8D0F87188B298B3A8BE8
:10109000C986DA86EB86FC869A8389834B835C83D8
:1010A0006D837E830E94EB06882371F180E591E0D9
:1010B0000E94A60046E050E062E071E089E090E026
:1010C0000E94B202CE0103960E94120444E050E056
:1010D000BE01615F7F4F81E090E00E94B20244E078
:1010E00050E0BE016B5E7F4F85E090E00E94B2024F
:1010F00089859A85AB85BC8580933B0590933C059B
:10110000A0933D05B0933E05E0960FB6F894DEBF80
:101110000FBECDBFDF91CF911F910F91FF90EF9048
:10112000DF90CF9008952091540330E0322F222792
:10113000620F731F90E0982F8827860F971F0C94DB
:10114000C006CF93C82F462F61E070E00E94BE0317
:1011500061E070E08C2F0E9493088111F9CFCF914C
:101160000895CF93C82F80E591E00E94A60068E023
:1011700070E08C2FCF910C94A108CF93C82F80E5FD
:1011800091E00E94A60060E170E08C2FCF910C945A
:10119000A108CF93DF93EC01888D843020F40E9466
:1011A000BD0884E0888FDF91CF910895CF93C82F39
:1011B00080E591E00E94A60063E070E08C2FCF9163
:1011C0000C949308CF93DF93EC018C858430D0F49A
:1011D0000E94D608843189F0882379F0883169F03B
:1011E00021E08C3159F4E881F9810084F185E02D0A
:1011F000CE01099521E0892B09F420E0822FDF91AF
:10120000CF91089580E0FBCFCF92DF92EF92FF92D3
:10121000CF93DF93EC018C85843068F40E94B10891
:101220000E9470026B017C018C850E94D60881119E
:1012300009C084E08C87DF91CF91FF90EF90DF9021
:10124000CF90089561E070E080E090E00E943E025F
:101250000E947002AB01BC014C195D096E097F0947
:101260008D859E85B0E0A0E0481759076A077B0787
:10127000D8F28C850E94BD08DCCFCF93FC01C08DD5
:1012800080E591E00E94A60060E270E08C2F0E9451
:10129000A10862E070E08C2F0E94930884FD16C0C4
:1012A00062E070E08C2F0E94930883FF0AC048E13F
:1012B00062E070E08C2F0E94BE0380E090E0CF914E
:1012C000089580E591E00E94A600E3CF40E162E04E
:1012D00070E08C2F0E94BE0381E0F0CFDA01E09134
:1012E0005403F0E0FE2FEE27E60FF71F90E0982F53
:1012F0008827A901BD018E0F9F1F0C94E6058F92D0
:101300009F92AF92BF92CF92DF92EF92FF921F9384
:10131000CF93DF93CDB7DEB72C970FB6F894DEBF2F
:101320000FBECDBF20917D0414E0222339F16B0163
:101330007C0180E591E00E94A6005E0127E0A20EFC
:10134000B11C450110E063E070E0812F0E9493081A
:10135000F40181934F01882349F11F5F143099F7FD
:1013600010E0F50181915F018D31D9F08831C9F02C
:101370008A518230B0F01F5F143099F7812F2C967C
:101380000FB6F894DEBF0FBECDBFDF91CF911F9196
:10139000FF90EF90DF90CF90BF90AF909F908F9095
:1013A000089560E170E0812F0E94A108A12EB12C68
:1013B00083EE93E00197F1F742E870E060E0812F5F
:1013C0000E94BE034FEF62E070E0812F0E94BE03D7
:1013D000B601C114D10491F48091000190910101F2
:1013E00001968115F0EC9F0708F45CC09093010111
:1013F000809300016091000170910101812F0E9492
:10140000A90386E0E2E1F1E0DE01119601900D9280
:101410008A95E1F7F70183818F778C8384818D83AF
:1014200085818E83A7014E5F5F4F24E030E06CE042
:1014300070E0812F0E948303B601812F0E949403E4
:1014400026E030E0AE014F5F5F4F66E070E0812F35
:101450000E94830361E070E0812F0E94A10827E0D1
:101460002A9DC0012B9D900D11249C012F593B4FAB
:101470007901F9011182108222E030E0AE01455F6E
:101480005F4F68E270E0812F0E946E098B859C851A
:10149000982789279827F7019383828316821582DC
:1014A00014826CCF80E090ECA1CFCF92DF92EF92CC
:1014B000FF920F931F93CF93DF9300D000D000D003
:1014C000CDB7DEB78C016B017A01FC01808D8430D1
:1014D00010F40E94BD088BEA91E09A838983F6019B
:1014E00082819381A481B5818B839C83AD83BE83EC
:1014F000B701CE0101960E947F09F801808F8430E8
:10150000A0F4F586E486128E118E81E026960FB641
:10151000F894DEBF0FBECDBFDF91CF911F910F9129
:10152000FF90EF90DF90CF90089580E0EFCFAF92E3
:10153000BF92CF92DF92EF92FF920F931F93CF93C0
:10154000DF9300D000D000D0CDB7DEB7082F6B01FD
:1015500080E591E00E94A6009E012F5F3F4F790138
:10156000590110E063E070E0812F0E949308F501BB
:1015700081935F01882341F11F5F143099F710E0D8
:10158000F70181917F018D31D1F08831C1F08A510D
:101590008230A8F01F5F143099F7812F26960FB67E
:1015A000F894DEBF0FBECDBFDF91CF911F910F9199
:1015B000FF90EF90DF90CF90BF90AF90089560E1E3
:1015C00070E0812F0E94A108E12EF12C83EE93E0C0
:1015D0000197F1F7402F70E060E0812F0E94BE0379
:1015E0004FEF62E070E0812F0E94BE03B601CD286C
:1015F00089F4809100019091010101968115F0EC30
:101600009F0798F190930101809300016091000180
:1016100070910101812F0E94A90361E070E0812F88
:101620000E94A10827E02E9DC0012F9D900D11243E
:101630009C012F593B4F7901F9011182108222E060
:1016400030E0AE014B5F5F4F68E270E0812F0E9497
:101650006E098D819E81982789279827F7019383AA
:10166000828316821582148298CF80E090ECCACFD4
:10167000CF92DF92EF92FF921F93CF93DF93EC0113
:101680007B016A018C85843048F40E94D608882347
:1016900019F08C850E94B10884E08C87F701828163
:1016A0009381A481B5810097A105B10551F490E023
:1016B00080E0DF91CF911F91FF90EF90DF90CF906E
:1016C00008958F3F9F4FAF4FBF4F89F380917D04A7
:1016D000811103C084E08C87EACF70E060E081E292
:1016E0000E94970A182F8C87843008F780E591E0D4
:1016F0000E94A600A7014E5F5F4F24E030E06CE03F
:1017000070E0812F0E948303B601812F0E94940311
:1017100064E070E0812F0E94A1080E9470026B01BA
:101720007C018C850E94D608873109F18C31F9F053
:10173000882309F4BCCF0E947002AB01BC014C1994
:101740005D096E097F098D859E85B0E0A0E0841754
:101750009507A607B70738F061E070E080E090E0F9
:101760000E943E02DECF8C850E94BD08B3CF81E08F
:1017700090E09FCF0F931F93CF93DF93EC018B01EA
:10178000888D843010F40E94BD0880917D04811101
:1017900007C094E0988FDF91CF911F910F9108952A
:1017A000B80182E00E94970A888F843030F41D8748
:1017B0000C871A8E198E81E0EECF80E0ECCF7F92FD
:1017C0008F929F92AF92BF92CF92DF92EF92FF9251
:1017D0000F931F93CF93DF9300D0CDB7DEB7782E52
:1017E0008B014A01590122E030E0AE014F5F5F4FAB
:1017F00064E270E00E946E09E980FA80FE24EF2422
:10180000FE24E00EF11E9701377040917D04072DF4
:1018100010E0433309F042C0085F1F4F102F00272C
:10182000110F110F110FC901800F911F4733C9F11B
:10183000A9014A0D5B1D4130584098F160E078E005
:101840006B01C21AD30AA601B4010E94B202A5011B
:101850004C195D09B4016C0D7D1DC8010E94B202D6
:10186000EA0CFB1CF982EA8222E030E0AE014F5F15
:101870005F4F64E270E0872D0E9483030F900F900A
:10188000DF91CF911F910F91FF90EF90DF90CF905C
:10189000BF90AF909F908F907F900895005F1F4FF3
:1018A000BDCFA501B401DACFEF92FF921F93CF9382
:1018B000DF9300D0CDB7DEB7182F22E030E0AE01C5
:1018C0004F5F5F4F60E270E00E946E09E980FA802E
:1018D000FE24EF24FE2422E030E0AE014F5F5F4F94
:1018E00060E270E0812F0E946E0989819A819827B9
:1018F00089279827E816F90689F487E0189FF001F0
:101900001124EF59FB4FF582E482C7010F900F902D
:10191000DF91CF911F91FF90EF9008957C01DBCF75
:101920001F93CF93DF93182F80E591E00E94A600CC
:10193000812F0E94540CEC0163E070E0812F0E9423
:101940009308873121F08C3111F0D0E0C0E0CE0156
:10195000DF91CF911F910895CF93DF93EC018C8598
:10196000843060F40E94D608873111F08C3131F454
:101970008C850E94900C8115984088F3DF91CF915F
:101980000895FC018485843010F40C94900C90E050
:1019900080E008959F92AF92BF92CF92DF92EF9234
:1019A000FF920F931F93CF93DF938C015B01942ED3
:1019B000E52EFC01C688D788F08C80E591E00E9476
:1019C000A6008F2D0E94540CC92DDE2D8C179D076B
:1019D00008F4EC019E01A501B6018F2D0E94DF0BDA
:1019E000F801868997898C0F9D1F978B868BCE0176
:1019F000DF91CF911F910F91FF90EF90DF90CF90EB
:101A0000BF90AF909F9008958F929F92AF92BF9298
:101A1000CF92DF92EF92FF920F931F93CF936C01BF
:101A20005B018A01FC01C485C430F0F57A014130C4
:101A3000584018F0E12C88E0F82E80E591E00E94F3
:101A4000A6008C2F0E94540C4C0163E070E08C2F98
:101A50000E949308873111F08C3149F58E149F0450
:101A600060F380E591E00E94A6009701A50170E077
:101A700060E08C2F0E94DF0B60E270E08C2F0E94F0
:101A8000A10862E070E08C2F0E94930884FD17C0CB
:101A900063E070E08C2F0E94930881110BC081E0FD
:101AA00090E0F6019383828310E000E010C0F12CF7
:101AB000E12CD7CF80E591E00E94A600E2CF40E183
:101AC00062E070E08C2F0E94BE03EF2841F3C80152
:101AD000CF911F910F91FF90EF90DF90CF90BF902B
:101AE000AF909F908F900895FF920F931F93CF9385
:101AF000DF9300D0CDB7DEB7F82E22E030E0AE01A4
:101B00004F5F5F4F66E270E00E946E0909811A81A3
:101B100010270127102722E030E0AE014F5F5F4F12
:101B200066E270E08F2D0E946E0989819A81982764
:101B3000892798270817190749F4C8010F900F90B3
:101B4000DF91CF911F910F91FF9008958C01E3CF0A
:101B50001F93CF93DF93182F87E0189FE001112484
:101B6000CF59DB4F88819981009761F480E591E03E
:101B70000E94A600812F0E94740D2E81821B910964
:101B800099838883DF91CF911F910895FC0184850B
:101B9000843010F40C94A80D90E080E008954F92EA
:101BA0005F927F928F929F92AF92BF92CF92DF927D
:101BB000EF92FF920F931F93CF93DF9300D0CDB797
:101BC000DEB7782E6B014A01A82EB12C27E0829F48
:101BD000C0011124FC01EF59FB4F7F0100811181ED
:101BE00080E591E00E94A6000815190554F4872DA0
:101BF0000E94740DF70126818C01021B11091183CB
:101C000000830115110529F563E070E0872D0E941E
:101C10009308843159F0882349F001E010E08C31B9
:101C200011F410E000E0119501951109C8010F9021
:101C30000F90DF91CF911F910F91FF90EF90DF9068
:101C4000CF90BF90AF909F908F907F905F904F907C
:101C50000895801691060CF4840187E08A9DF001B6
:101C60008B9DF00D1124EF59FB4FE280F380C114DE
:101C7000D10451F12701F7E05F22872D0E947503FF
:101C8000840D951D20917D04273309F453C09801DC
:101C9000240D351D2130384008F44CC020E038E0D8
:101CA000490184189508A401B6010E94E6052601A1
:101CB000480C591C6801C818D908872D0E94750363
:101CC000A601B2010E94E605E00EF11E87E08A9DA2
:101CD000F0018B9DF00D1124EF59FB4FF382E2824E
:101CE00020813181201B310B318320838681800F3D
:101CF000912F911D8A3F910510F4232BF1F487E079
:101D00008A9DF0018B9DF00D1124EF59FB4F168237
:101D1000F982EA8222E030E0AE014F5F5F4F68E275
:101D200070E0872D0E94830360E470E0872D0E949D
:101D3000A1087CCFA801B601C5CF868377CFCF930A
:101D4000DF93FC01218D328D2115310529F48FEFB0
:101D50009FEFDF91CF910895EC01808D42175307DB
:101D600008F0A9010E94CF0D1816190684F7298DD5
:101D70003A8D281B390B3A8F298FEBCF0F931F9386
:101D8000CF93DF931F92CDB7DEB7FC01218D328D4B
:101D9000232B41F48FEF9FEF0F90DF91CF911F9195
:101DA0000F9108958C0141E050E0BE016F5F7F4FBD
:101DB000FC01808D0E94CF0D181619065CF7F80102
:101DC000818D928D0197928F818F898190E0E4CFF0
:101DD000CF93DF931F92CDB7DEB741E050E0BE0155
:101DE0006F5F7F4FFC0184850E94CF0D1816190686
:101DF00034F4898190E00F90DF91CF9108958FEFB7
:101E00009FEFF9CFFC018485843010F40C94CF0D42
:101E100090E080E008950F931F93CF93DF9300D05D
:101E2000CDB7DEB7FC0124852430E0F48C0180E5D9
:101E300091E00E94A60022E030E0AE014F5F5F4FCC
:101E400060E170E0F80184850E946E0989819A81C1
:101E50009827892798270F900F90DF91CF911F9196
:101E60000F91089590E080E0F6CF0F931F93CF93EA
:101E7000DF9300D0CDB7DEB7FC0124852430E0F439
:101E80008C0180E591E00E94A60022E030E0AE01E6
:101E90004F5F5F4F64E070E0F80184850E946E0937
:101EA00089819A819827892798270F900F90DF9131
:101EB000CF911F910F91089590E080E0F6CFDC0163
:101EC0008BEA91E08D939D9384E0FB0101900D924C
:101ED0008A95E1F70895EF92FF920F931F93CF93A6
:101EE000DF9300D000D0CDB7DEB78C017B01FB01C2
:101EF00084858430A8F08BEA91E0F8019183808397
:101F00001282138214821582C8010F900F900F90D5
:101F10000F90DF91CF911F910F91FF90EF90089557
:101F200080E591E00E94A60024E030E0AE014F5F22
:101F30005F4F6CE070E0F70184850E946E09BE017E
:101F40006F5F7F4FC8010E945F0FDECF0F931F931B
:101F5000CF93DF93CDB7DEB728970FB6F894DEBFE7
:101F60000FBECDBF8C01D80159964D915C915A9707
:101F70004115510551F0ED91FC91048CF58DE02D4A
:101F800070E060E0C8010995EECFF801808D0E94F5
:101F9000A80D892BB1F148E050E0BE016F5F7F4F83
:101FA000D80158968C910E94CF0D18161906F4F49A
:101FB000D801509684E0FE01319601900D928A95E9
:101FC000E1F78D8190E0982F88272E81820F911D57
:101FD000F801958B848B8F81282F30E0322F2227B8
:101FE0008885820F932F911D928F818F28960FB62F
:101FF000F894DEBF0FBECDBFDF91CF911F910F913F
:10200000089590E080E0F2CF4F925F926F927F92BE
:102010008F929F92AF92BF92CF92DF92EF92FF92F8
:102020000F931F93CF93DF93CDB7DEB763970FB6B0
:10203000F894DEBF0FBECDBF7C016B013A01FB01FE
:1020400020E090E080E06AE03191332309F461C040
:1020500040ED430F4A3008F04DC0689FA001699FD2
:10206000500D1124CA01C097830F911D37FD9A9519
:102070008F3F910549F340F3F70142815381648119
:1020800075818091470590914805A0914905B091CF
:102090004A05481759076A077B0709F40DC28701EB
:1020A000085F1F4F0E9470026F7077277C5FC80126
:1020B0000E94BA0B813009F004C28BEA91E09A8346
:1020C0008983F70182819381A481B5818B839C836D
:1020D000AD83BE8345E350E0BE016F5F7F4FC80113
:1020E0000E941A04892BA9F5D12CC12CC8010E9489
:1020F000C90817C03E3209F0BFCF233009F4BCCF66
:10210000D301A20FB11D12968C932F5F90E080E057
:102110009BCF233009F0B0CFF3018583CC24C39447
:10212000D12CC60163960FB6F894DEBF0FBECDBFAB
:10213000DF91CF911F910F91FF90EF90DF90CF90A3
:10214000BF90AF909F908F907F906F905F904F90D7
:1021500008950E947002F7017783668342E050E0A1
:10216000B7016A5F7F4FC8010E94CA0C81E090E00E
:102170009A83898342E050E0BE016F5F7F4FC801C0
:102180000E94CA0C80E091E09A83898342E050E08B
:10219000BE016F5F7F4FC8010E94CA0C1A8219826C
:1021A00042E050E0BE016F5F7F4FC8010E94CA0C41
:1021B00042E050E0BE016F5F7F4FC8010E94CA0C31
:1021C00042E050E0BE016F5F7F4FC8010E94CA0C21
:1021D0005601F6018081882301F16501F6018191A4
:1021E0002F01882311F08E32B1F446018A189B0822
:1021F0001814190474F48D8641E050E0BE01635F49
:102200007F4FC8010E94CA0CA401B501C8010E94F9
:10221000CA0C5201DECF6201E1CF1D8641E050E0E1
:10222000BE01635F7F4FC8010E94CA0CC12CDD2430
:10223000D394DA82C98242E050E0BE016F5F7F4FE3
:10224000C8010E94CA0CDA82C98242E050E0BE0195
:102250006F5F7F4FC8010E94CA0CC8010E943D09F0
:10226000892B09F441CFF3E0AF2EB12C230122E0FA
:10227000420E511CD4C0F7014281538164817581A3
:10228000808D918DA28DB38D481759076A077B0702
:1022900009F008C1848D958DC59709F003C181A10E
:1022A00092A15DEFC52EDD24DA940C970CF4ADC03D
:1022B0004CE050E0BE016F5F7F4FC8010E949F0E4F
:1022C0008B819C819827892798279A8B898BF70186
:1022D0004681578129813A814217530709F0E7C0A7
:1022E00097FFE5C08F7092703BEFC32EDD24DA9428
:1022F000892B09F08AC06F8078847624672476243D
:102300002AEFC22EDD24DA946114710409F47DC031
:10231000D12CC12C8D819E81982789279827C8169A
:10232000D906F8F441E050E0BE01635F7F4FC80179
:102330000E949F0E4D85442331F050E070E060E034
:10234000C8010E949F0E8D858111ECCF44E050E0C2
:1023500070E060E0C8010E949F0EFFEFCF1ADF0A15
:10236000D9CF912C812C41E050E0BE016D5E7F4FB2
:10237000C8010E949F0E4B89842F807C09F06CC09D
:10238000442331F050E070E060E0C8010E949F0EED
:102390008B898111E8CF42E050E0BE01615F7F4F41
:1023A000C8010E949F0E42E050E0BE01635F7F4F74
:1023B000C8010E949F0E44E050E070E060E0C80158
:1023C0000E949F0E42E050E0BE016F5E7F4FC80149
:1023D0000E949F0E8F85988949895A89811591405D
:1023E00009F043C0CD84DE84DC24CD24DC2481E0EC
:1023F000C816D104D1F54115544009F04AC044E053
:1024000050E0B201C8010E949F0E21E0A21AB1085B
:1024100009F46CCEFFEFCF16DF0609F067CE0E94FD
:1024200070023B014C01C8010E94A60F1816190644
:102430000CF421CF0E947002661977098809990966
:10244000693873418105910548F562E370E080E0E9
:1024500090E00E943E02E7CF41E050E070E060E093
:10246000C8010E949F0E1B8A93CF542745275427EB
:1024700070E060E0C8010E949F0EFFEF8F1A9F0A74
:102480006814790409F06FCF96EFC92EDD24DA9431
:10249000BCCFE7EFCE2EDD24DA94B7CFCC24CA949C
:1024A000DC2CB3CF6EEFC62EDD24DA94AECF4CEF2A
:1024B000C42EDD24DA94A9CF8EEFC82EDD24DA9461
:1024C00030CED12CC12C2DCECF92DF92EF92FF9245
:1024D0000F931F93CF93DF93CDB7DEB7AF970FB6B0
:1024E000F894DEBF0FBECDBF7C016A010BEA11E09C
:1024F0001A8309831C861B8688EE93E0A0E0B0E077
:102500008D879E87AF87B88B8CE291E09A87898709
:10251000188F0F8B198E1A8E1B8E1C8E84E089A348
:102520001BA70AA71CA61DA61EA61FA680913B05D9
:1025300090913C05A0913D05B0913E058EA39FA3CF
:10254000A8A7B9A78B839C83AD83BE8318861F82FF
:10255000AE01465D5F4FCE0101960E9404108130AE
:102560009105B1F4D701ED91FC910488F589E02D36
:102570001DA30CA38CA59DA5AEA5BFA58EA39FA34F
:10258000A8A7B9A7A601BE016C5D7F4FC701099539
:10259000AF960FB6F894DEBF0FBECDBFDF91CF91DF
:1025A0001F910F91FF90EF90DF90CF900895CF9201
:1025B000DF92EF92FF920F931F93CF93DF93CDB7EC
:1025C000DEB7AF970FB6F894DEBF0FBECDBF8C015C
:1025D0006B017A018BEA91E09A8389831B821C82CA
:1025E0001D821E821C861B8648EE53E060E070E070
:1025F0004D875E876F87788B2CE231E03A87298799
:10260000988F8F8B198E1A8E1B8E1C8E24E029A317
:102610009BA78AA71CA61DA61EA61FA6D8011C96AE
:102620008C91843060F40E94D608882321F0F80150
:1026300084850E94B10884E0D8011C968C93809117
:102640003B0590913C05A0913D05B0913E058EA3C0
:102650009FA3A8A7B9A78B839C83AD83BE8318864D
:102660001F82AE01465D5F4FB601CE0101960E940A
:1026700004100097C1F0D801ED91FC910684F78514
:10268000E02D8BEA91E09DA38CA38CA59DA5AEA522
:10269000BFA58EA39FA3A8A7B9A7A701BE016C5D84
:1026A0007F4FC8010995AF960FB6F894DEBF0FBEF5
:1026B000CDBFDF91CF911F910F91FF90EF90DF90F1
:1026C000CF900895FB0101900020E9F73197AF0109
:1026D000461B570BDC01ED91FC910280F381E02D4C
:1026E00009948F929F92AF92BF92EF92FF920F93B5
:1026F0001F93CF93DF93CDB7DEB7A1970FB6F894B2
:10270000DEBF0FBECDBF7C01FA01CB0119A2223082
:1027100008F42AE08E010F5D1F4F822E912CB12C00
:10272000A12CBF01A50194010E94CF1FF901CA018C
:102730006A300CF5605DD8016E938D01232B242B3C
:10274000252B79F790E080E0109721F0BD01C701BB
:102750000E946213A1960FB6F894DEBF0FBECDBFE4
:10276000DF91CF911F910F91FF90EF90BF90AF90AD
:102770009F908F900895695CDECF8F929F92AF9269
:10278000BF92CF92DF92EF92FF920F931F93CF935E
:10279000DF937C01EB016C0182E0C80ED11C470184
:1027A000E5E08E0E911C10E000E0F60141916F0112
:1027B00050E070E060E02AE0CE010E9471135C01FD
:1027C000E881F9810190F081E02D6EE2CE0109955A
:1027D0008A0D9B1D080F191FC814D90431F7F70182
:1027E000458150E070E060E02AE0CE010E94711364
:1027F000800F911FDF91CF911F910F91FF90EF906C
:10280000DF90CF90BF90AF909F908F9008954F92A0
:102810005F926F927F928F929F92AF92BF92CF9270
:10282000DF92EF92FF92CF936B017C01842EAC017B
:102830009B010E9437226DEA71E0811126C02601BA
:102840003701E89477F82FEF3FEF4FE75FE7C301D9
:10285000B2010E94372281110CC02FEF3FEF4FE7EA
:102860005FE7C301B2010E946D2061EB71E01816B1
:1028700064F02FEF3FEF4FE75FE4C701B6010E941E
:10288000C52118169CF465EB71E08EE794E0CF91BA
:10289000FF90EF90DF90CF90BF90AF909F908F9080
:1028A0007F906F905F904F900C9462132FEF3FEFEB
:1028B0004FE75FECC701B6010E946D2087FDE3CFB3
:1028C00020E030E0A901C701B6010E946D20B12CC3
:1028D000A12C87FF0AC06DE28EE794E00E946001A0
:1028E0005C01F7FAF094F7F8F094C82D60E070E01E
:1028F00080E09FE3912C20E030E040E251E40E9430
:10290000722093949814B8F3A70196010E940120B5
:102910002B013C010E94E4206B017C010E941321E9
:102920009B01AC01C301B2010E9400202B013C01BC
:102930002AE0B701A6018EE794E00E9471137C01A2
:102940006EE28EE794E00E946001E80EF91EEA0C48
:10295000FB1CC15028F120E030E040E251E4C3010B
:10296000B2010E94CA212B013C010E94E4204B01CC
:10297000B12CA12C2AE0B501A4018EE794E00E94BD
:102980007113E80EF91EC501B4010E9413219B01C9
:10299000AC01C301B2010E9400202B013C01D9CF40
:1029A000C701CF91FF90EF90DF90CF90BF90AF9095
:1029B0009F908F907F906F905F904F90089569EBFC
:1029C00071E00C946213CF93DF936EE774E00E9482
:1029D000BD13EC018EE794E00E94DF148C0F9D1F65
:1029E000DF91CF9108950F931F93CF93DF93EC0165
:1029F0000E9462138C01CE010E94DF14800F911F90
:102A0000DF91CF911F910F9108956115710511F01C
:102A10000C94621390E080E008953F924F925F9291
:102A20006F927F928F929F92AF92BF92CF92DF92DE
:102A3000EF92FF920F931F93CF93DF93CDB7DEB743
:102A4000EA970FB6F894DEBF0FBECDBF7C012A0116
:102A50003B0169010E9470024B015C0187010D5B23
:102A60001F4FC8010E94A60F181619069CF00E945D
:102A70007002681979098A099B0946165706680683
:102A8000790608F466C162E370E080E090E00E949D
:102A90003E02E7CF42E250E0BE016F5F7F4FC801C8
:102AA0000E949F0E89818230D1F0312C832DEA96CD
:102AB0000FB6F894DEBF0FBECDBFDF91CF911F914F
:102AC0000F91FF90EF90DF90CF90BF90AF909F90CD
:102AD0008F907F906F905F904F903F900895F80196
:102AE000848995898334910501F76D817E818F8179
:102AF00098850E943C224B015C01F6018082918204
:102B0000A282B38246E050E0B701685F7F4FCE01FA
:102B10004D960E946E23892B41F6F70180819181A9
:102B2000A281B38188169906AA06BB0608F4BDCF18
:102B300084819581A681B78188159905AA05BB0571
:102B400008F4B3CF89899A89AB89BC89868797872E
:102B5000A08BB18B4EEC50E070E060E0C8010E94A9
:102B60009F0E312CC701829698AB8FA7F701B696BE
:102B7000FAABE9AB08969CAB8BAB67019AE1C90E47
:102B8000D11CBD96FEABEDABC701429698AF8FABA3
:102B9000FD97FAAFE9AF4701FEE18F0E911CF801F6
:102BA000818D928D181619060CF080CFC8010E94F5
:102BB000BE0E8333910509F4B2C014F5813091053E
:102BC00009F464C044F4892B51F3C8010E94BE0E7D
:102BD000AC01552775C08330910509F462C0069792
:102BE000A1F7C8010E94BE0EB82E44E050E0B40127
:102BF000C8010E949F0EEB2DE450FF0BAF0160C097
:102C00008A33910509F45FC084F585339105B1F1EC
:102C1000C697D9F6C8010E94BE0E5C01B601CE016E
:102C200089960E945F0F8BA59CA5ADA5BEA5892B9B
:102C30008A2B8B2BB1F0EDA9FEA9408051806280D8
:102C40007380B601CE0183960E945F0F8DA19EA175
:102C5000AFA1B8A5A501481659066A067B0609F07A
:102C6000B8CF44E050E0B60118C08B33910509F4A9
:102C700040C08F3F910509F492CFA7CFC8010E94B1
:102C8000BE0EC8010E94BE0E382E89CFC8010E9418
:102C9000BE0E44E050E06FA978ADC8010E949F0EBF
:102CA0007ECFC8010E94BE0EB82E44E050E069AD50
:102CB0007AADC8010E949F0E8B2D8450990BAC01F8
:102CC00070E060E0EACFC8010E94BE0E44E050E030
:102CD00069A97AA9C8010E949F0EF70166A177A190
:102CE00080A591A50E943C2266A377A380A791A707
:102CF00056CFC8010E94BE0E44E050E06BA97CA9EB
:102D0000C8010E949F0EF70162A573A584A595A531
:102D10000E943C2262A773A784A795A740CFC80151
:102D20000E94BE0E44E050E06FA578A9C8010E9441
:102D30009F0EF70162A173A184A195A10E943C227C
:102D400062A373A384A395A366A777A780AB91AB77
:102D500026CF33243A94AACE7F928F929F92AF923D
:102D6000BF92CF92DF92EF92FF920F931F93CF9378
:102D7000DF93CDB7DEB7A6970FB6F894DEBF0FBED0
:102D8000CDBF8C01762E942E852E20E2A22ECE0170
:102D900001967C01DC01EA2D1D92EA95E9F76801B4
:102DA000F3E4CF0ED11C8BEA91E09AA389A38FEFB5
:102DB0008BA38CA38DA38EA343E450E0BE016F5D73
:102DC0007F4FC6010E941A04019609F4BFC081E03A
:102DD00089838A8386E0B82EBB821C82D801149630
:102DE0006D917D918D919C9117970E943C226D83EE
:102DF0007E838F83988789869A8680E890E09C8777
:102E00008B874CE150E0B701C6010E94CA0CFE015D
:102E100037968AE1DF011D928A95E9F74801B8E00B
:102E20008B0E911CF401D70101900D92BA94E1F739
:102E300040E150E0B701C6010E94CA0CF7011192AF
:102E4000AA94E9F796E0A92EB12C40E250E0B70130
:102E5000C6010E94CA0CF1E0AF1AB108B1F783E6CF
:102E6000898392E89A8393E59B838C8385E38D83A2
:102E700081E08E837F829DE3988797E099878A8798
:102E800086E0F401DE011B9601900D928A95E1F730
:102E90008CE0898B8A8B6CEB71E0CE0143960E94AB
:102EA0008223D8011B966C91CE0149960E94A900FD
:102EB000F8016485CE014B960E94A900D8011D96A9
:102EC0006C91CE014D960E94A9004EE150E0B701F1
:102ED000C6010E94CA0CB3E07B121EC082E3898344
:102EE00084E08A83F80196859B8397859C839089EB
:102EF0009D8391899E8396E39F838887828D8987AE
:102F0000838D8A87848D8B87858D8C874CE050E0FC
:102F1000B701C6010E94CA0C87E3898386E08A83D1
:102F200091E09B8393E09C838D838FE08E838AE383
:102F30008F838BE388878FEF898749E050E0B70163
:102F4000C6010E94CA0CC6010E943D09A6960FB692
:102F5000F894DEBF0FBECDBFDF91CF911F910F91CF
:102F6000FF90EF90DF90CF90BF90AF909F908F90A9
:102F70007F9008956F927F928F929F92AF92BF92AF
:102F8000CF92DF92EF92FF920F931F93CF93DF9335
:102F9000CDB7DEB76E970FB6F894DEBF0FBECDBFCC
:102FA0004C0190E2692E91E0792EF12CE12CCE01BA
:102FB00001966C012DEDA22E21E0B22EF30181913C
:102FC00091913F018815990509F00BC140E550E04A
:102FD00063EC71E081E595E00E94D712892B09F43A
:102FE000F9C08EE794E00E94DF148EE794E00E941F
:102FF000DF146FEC71E08EE794E00E94051561E547
:1030000075E0C6010E946B0FC6010E94E314F70130
:10301000EE0FFF1FE85EFE4F81818F9380818F93BB
:10302000BF92AF92DF92CF920E948923B60181E5D1
:1030300095E00E94F31481E595E00E94DF140F9063
:103040000F900F900F900F900F9064EF71E080E061
:1030500090E00E943E0281E595E00E94C60D1816A0
:10306000190664F58C018739910514F006E910E022
:10307000A8016BEC73E081E595E00E94020FA801C6
:103080006BEC73E08EE794E00E94C000C801110F62
:10309000AA0BBB0B00914C0310914D0320914E03E2
:1030A00030914F03800F911FA21FB31F80934C03D9
:1030B00090934D03A0934E03B0934F0381E595E0A9
:1030C0000E94E20881118DC00E941902609348039A
:1030D0007093490380934A0390934B038EE794E0E7
:1030E0000E94DF1460E072E08EE794E00E94F31427
:1030F00081E595E00E9404096FE072E08EE794E0BC
:103100000E94051540914C0350914D0360914E0370
:1031100070914F032AE08EE794E00E94711369E1F9
:1031200072E08EE794E00E9405156091480370916B
:10313000490380914A0390914B030091C70310917A
:10314000C8032091C9033091CA03601B710B820B25
:10315000930B0E94132120E034E244E759E40E94DB
:1031600072206B017C0144E050E00E9407146091E2
:103170004C0370914D0380914E0390914F030E9438
:103180001321A70196010E94722020E030E04AE757
:1031900054E40E9472206B017C0164E272E08EE7CD
:1031A00094E00E94051542E050E0C701B6010E947C
:1031B00007146EE272E08EE794E00E9405158EE738
:1031C00094E00E94DF1461E070E080E090E00E94F3
:1031D0003E02F9CF6EEE71E08EE794E00E94F314A8
:1031E00034CFFFEFEF1AFF0A84E0E816F10409F08C
:1031F000E5CE6E960FB6F894DEBF0FBECDBFDF9161
:10320000CF911F910F91FF90EF90DF90CF90BF90E3
:10321000AF909F908F907F906F9008950C94E522CF
:103220001F920F920FB60F9211242F933F934F933B
:103230005F936F937F938F939F93AF93BF93EF931E
:10324000FF938EE794E00E943E01FF91EF91BF91C2
:10325000AF919F918F917F916F915F914F913F912E
:103260002F910F900FBE0F901F9018951F920F92E5
:103270000FB60F9211242F938F939F93EF93FF9389
:10328000E0918E04F0918F048081E0919404F0919C
:10329000950482FD1BC09081809197048F5F8F738E
:1032A00020919804821741F0E0919704F0E0E258F1
:1032B000FB4F958F80939704FF91EF919F918F9192
:1032C0002F910F900FBE0F901F9018958081F4CF13
:1032D0001F920F920FB60F9211242F933F938F934B
:1032E0009F93AF93BF938091570390915803A09100
:1032F0005903B0915A033091560323E0230F2D3721
:1033000058F50196A11DB11D2093560380935703D4
:1033100090935803A0935903B0935A0380915B0391
:1033200090915C03A0915D03B0915E030196A11D95
:10333000B11D80935B0390935C03A0935D03B093F6
:103340005E03BF91AF919F918F913F912F910F900D
:103350000FBE0F901F90189526E8230F0296A11D0F
:10336000B11DD2CFCF92DF92EF92FF92CF93DF9336
:10337000EEE7F4E01382128288EEC82E83E0D82EA6
:10338000E12CF12CC482D582E682F7828BE591E0B4
:103390009183808385EC90E09587848784EC90E02E
:1033A0009787868780EC90E0918B808B81EC90E012
:1033B000938B828B82EC90E0958B848B86EC90E0F3
:1033C000978B868B118E128E138E148EEBE1F5E0A7
:1033D000CBEAD1E0D183C08312821382148215829A
:1033E000E1E2F5E0D183C083128213821482158258
:1033F000E7E2F5E0D183C083128213821482158242
:10340000EDE2F5E0D183C08312821382148215822B
:10341000E3E3F5E0D183C083128213821482158224
:10342000EFE3F5E0D183C083128213821482158208
:10343000E9E3F5E0D183C0831282138214821582FE
:10344000E5E4F5E0D183C0831282138214821582F1
:10345000EBE4F5E0D183C0831282138214821582DB
:10346000E4E8F5E0D183C0831282138214821582CE
:10347000ECE6F5E0138212828FE991E0918380837C
:103480008EE084838FEF85838FE0868380E187835E
:1034900081E1808782E1818783E1828713861486B8
:1034A00015861686178681E00E943405E6E6F5E06B
:1034B000D183C08390EC928388EA8383148221EBCA
:1034C0002583E0E6F5E0D183C08392838383148271
:1034D00081E08583E1E5F5E013821282C482D58222
:1034E000E682F7828DE691E09183808384E0848791
:1034F00088EE93E096878587DF91CF91FF90EF90DC
:10350000DF90CF900895CF93DF93CDB7DEB72C97A0
:103510000FB6F894DEBF0FBECDBF789484B582603D
:1035200084BD84B5816084BD85B5826085BD85B567
:10353000816085BD80916E00816080936E001092E5
:103540008100809181008260809381008091810060
:1035500081608093810080918000816080938000F1
:103560008091B10084608093B1008091B00081604F
:103570008093B00080917A00846080937A0080917B
:103580007A00826080937A0080917A0081608093D3
:103590007A0080917A00806880937A001092C1004E
:1035A000E0918E04F0918F0482E08083E0918A04A0
:1035B000F0918B041082E0918C04F0918D048FECDB
:1035C000808310929604E0919204F091930486E037
:1035D0008083E0919004F0919104808180618083E8
:1035E000E0919004F0919104808188608083E09163
:1035F0009004F0919104808180688083E091900430
:10360000F091910480818F7D80836DE372E08EE77D
:1036100094E00E94F3148091BF0381112AC010929C
:10362000A7031092A60388EE93E0A0E0B0E0809399
:10363000A8039093A903A093AA03B093AB038CE2D1
:1036400091E09093A5038093A4038BEA91E090937B
:10365000B3038093B2031092B4031092B503109297
:10366000B6031092B70384E08093BC0381E080939B
:10367000BF0381E693E09093600380935F030E9411
:10368000EB06882309F44BC380E591E00E94A60075
:1036900046E050E062E071E089E090E00E94B20212
:1036A0008BEA91E09A8389831B821C821D821E8291
:1036B000CE0103960E941204109283031092840399
:1036C000109285031092860310928703109288034C
:1036D0001092890310928A0310928B0310928C032C
:1036E00010928D0310928E0380E69AEEA0E0B0E077
:1036F0008093970390939803A0939903B0939A03B0
:1037000080EA9FE0A0E0B0E080939B0390939C034D
:10371000A0939D03B0939E03EFE6F3E084E1DF0105
:103720001D928A95E9F786E0E2E0F1E0A9E6B3E0D0
:1037300001900D928A95E1F71092A3030E94451F14
:103740002FEC37E040E050E00E949D1FDC01CB01F0
:103750000196A11DB11D8093650390936603A0930C
:103760006703B09368038093610390936203A0930F
:103770006303B093640384EA93E00E94C90864E49D
:1037800070E084EA93E00E94BA0B882309F4C7C270
:103790000E9470026B017C0148EE442E43E0542EDF
:1037A000612C712C53E0952E02E0B12CA12C80915C
:1037B000A303833009F440C08111AFC18091650338
:1037C00090916603A0916703B09168030196A11DD3
:1037D000B11D8093650390936603A0936703B09334
:1037E00068030E9470026C197D098E099F09A3016C
:1037F00092010E94CF1FA90161E081E693E00E943F
:10380000AC1681E08093A30391E0A916B10479F28C
:103810000E9470026C197D098E099F0920919703FF
:10382000309198034091990350919A0326173707D6
:103830004807590708F0B9CF84EA93E00E94C90805
:103840008091650390916603A0916703B09168032E
:103850000196A11DB11D8093650390936603A0930B
:103860006703B09368030E94700260939F03709394
:10387000A0038093A1039093A203AA94AB2809F01C
:103880004EC280E591E00E94A60000915F03109176
:103890006003B801625F7F4FCE0101960E945F0F07
:1038A000CE0103960E941204B8016A5E7F4FCE01DA
:1038B00001960E945F0F44E050E0BE016D5F7F4FB4
:1038C00081E090E00E94B202B8016E5E7F4FCE01AF
:1038D00001960E945F0F44E050E0BE016D5F7F4F94
:1038E00085E090E00E94B202B801625E7F4FCE0197
:1038F00001960E945F0F8B819C81AD81BE81809378
:103900003B0590933C05A0933D05B0933E050E9476
:1039100019027F7380910001909101016827792736
:1039200070930101609300016CE572E08EE794E012
:103930000E9405158BEA91E09A8389831B821C8281
:103940001D821E8280E591E00E94A60044E050E0C6
:10395000BE016D5F7F4F8FE090E00E94E605CE01D3
:1039600001960E94E31468EE73E080E090E00E940C
:103970003E020E9419026093C7037093C8038093AC
:10398000C9039093CA038EE00E9487008FE00E94D3
:10399000870080E10E94870081E10E94870082E128
:1039A0000E94870083E10E94870082E00E94340524
:1039B0000E942C0560E080E00E94D1056BEF72E070
:1039C0008CE695E00E94051560E08AE00E94D10532
:1039D00090E080E00E94BA17ABECB3E0FD01EB5C35
:1039E000F3408D918111FACFE553FC4FBF016B5C21
:1039F0007340319781818A30C9F764537C4F8CE6DC
:103A000095E00E94051561E080E00E94D10565E027
:103A100073E08CE695E00E94051561E089E00E9464
:103A2000D10581E090E00E94BA17ABECB3E0FD0154
:103A3000EB5CF3408D918111FACFE553FC4FBF0150
:103A40006B5C7340319781818A30C9F764537C4F36
:103A50008CE695E00E94051568E873E180E090E04F
:103A60000E943E020E942C0560E080E00E94D10589
:103A70006EE073E08CE695E00E94051560E089E059
:103A80000E94D10583E090E00E94BA17ABECB3E04E
:103A9000FD01EB5CF3408D918111FACFE553FC4FB2
:103AA000BF016B5C7340319781818A30C9F76453E1
:103AB0007C4F8CE695E00E94051561E080E00E9455
:103AC000D10567E173E08CE695E00E94051561E0A1
:103AD00089E00E94D10582E090E00E94BA17ABEC29
:103AE000B3E0FD01EB5CF3408D918111FACFE5531A
:103AF000FC4FBF016B5C7340319781818A30C9F7FD
:103B000064537C4F8CE695E00E94051568E873E1EC
:103B100080E090E00E943E024BCF843031F58091EE
:103B2000650390916603A0916703B09168030196C5
:103B3000A11DB11D8093650390936603A093670355
:103B4000B09368030E9470026C197D098E099F0969
:103B5000A30192010E94CF1FA90163E081E693E0D7
:103B60000E94AC160093A3034FCE813091F5409193
:103B70009B0350919C0360919D0370919E039E0155
:103B80002F5F3F4F81E693E00E940D15182F823082
:103B900009F0C1C089819A81AB81BC8180936503A2
:103BA00090936603A0936703B09368030E9470022A
:103BB0006C197D098E099F09A30192010E94CF1FF4
:103BC000A90163E081E693E00E94AC161093A30381
:103BD0001BCE823009F018CE40919B0350919C037C
:103BE00060919D0370919E039E012F5F3F4F81E680
:103BF00093E00E940D15182F853009F087C0909230
:103C0000A3038091830390918403A0918503B091D5
:103C10008603892B8A2B8B2B61F484E893E0A0E048
:103C2000B0E08093830390938403A0938503B093C3
:103C300086038091870390918803A0918903B091B6
:103C40008A03892B8A2B8B2BA1F48091830390917B
:103C50008403A0918503B0918603B695A7959795A7
:103C600087958093870390938803A0938903B093EB
:103C70008A0380918B0390918C03A0918D03B09166
:103C80008E03892B8A2B8B2BE9F4809183039091EF
:103C90008403A0918503B0918603AC01BD0123E0AC
:103CA00076956795579547952A95D1F7841B950B7F
:103CB000A60BB70B80938B0390938C03A0938D037B
:103CC000B0938E038091870390918803A09189031C
:103CD000B0918A0380938F0390939003A0939103F4
:103CE000B093920380918B0390918C03A0918D03EC
:103CF000B0918E038093930390939403A0939503C4
:103D0000B0939603AA24A394B12C7ECD863019F4E7
:103D10001092A30379CD1F3F09F076CDF9CF6EE65F
:103D200072E08EE794E00E94F314E0917D04E35387
:103D3000E53030F4F0E0EE5AFE4F808181110DC085
:103D400066E972E08EE794E00E94F31461E070E0AF
:103D500080E090E00E943E02F9CF0E94EB068823AB
:103D600031F080917D04843341F18733B9F18BEADE
:103D700091E09A8389834091620550916305609137
:103D80006405709165054B835C836D837E839887A2
:103D90008F838091680590916905A0916A05B09123
:103DA0006B0589879A87AB87BC87BE016F5F7F4FA2
:103DB000CE0107960E940A08D6CD80E591E00E94C8
:103DC000A60085E390E00E94C00685FDD0CF6AED95
:103DD00072E08EE794E00E94F314C9CF80E591E091
:103DE0000E94A6008EE290E00E94C00680FDBFCF38
:103DF000EECF8F929F92AF92BF92CF92DF92EF92CF
:103E0000FF92CF93DF93EC01688179818A819B8156
:103E1000611571058105910521F464E279ED8BE569
:103E200097E02DE133EF41E050E00E949D1F4901F2
:103E30005A019B01AC01A7EAB1E40E94BC1F6B01CF
:103E40007C01ACEEB4EFA50194010E94CA1FC60E1E
:103E5000D71EE81EF91EF7FE06C081E0C81AD10879
:103E6000E10880E8F80AC882D982EA82FB82C701A9
:103E7000B6019F77DF91CF91FF90EF90DF90CF90C9
:103E8000BF90AF909F908F9008958F929F92AF9226
:103E9000BF92CF92DF92EF92FF92609108017091F2
:103EA000090180910A0190910B016115710581054D
:103EB000910521F464E279ED8BE597E02DE133EF94
:103EC00041E050E00E949D1F49015A019B01AC0155
:103ED000A7EAB1E40E94BC1F6B017C01ACEEB4EF19
:103EE000A50194010E94CA1FC60ED71EE81EF91E26
:103EF000F7FE06C081E0C81AD108E10880E8F80A98
:103F0000C0920801D0920901E0920A01F0920B01DF
:103F1000C701B6019F77FF90EF90DF90CF90BF90E1
:103F2000AF909F908F90089560930801709309015E
:103F300080930A0190930B010895052E97FB1EF4C0
:103F400000940E94B41F57FD07D00E94CF1F07FCAA
:103F500003D04EF40C94B41F5095409530952195A4
:103F60003F4F4F4F5F4F08959095809570956195A5
:103F70007F4F8F4F9F4F08950E94F11FA59F900D77
:103F8000B49F900DA49F800D911D11240895B7FF3B
:103F90000C94BC1F0E94BC1F821B930B0895A1E2CE
:103FA0001A2EAA1BBB1BFD010DC0AA1FBB1FEE1FB3
:103FB000FF1FA217B307E407F50720F0A21BB30BFE
:103FC000E40BF50B661F771F881F991F1A9469F77A
:103FD00060957095809590959B01AC01BD01CF01D6
:103FE0000895A29FB001B39FC001A39F700D811DD2
:103FF0001124911DB29F700D811D1124911D0895F2
:104000005058BB27AA270E9418200C948B210E948D
:104010007D2138F00E94842120F039F49F3F19F46B
:1040200026F40C947A210EF4E095E7FB0C947421AD
:10403000E92F0E949C2158F3BA176207730784077F
:10404000950720F079F4A6F50C94BE210EF4E095C6
:104050000B2EBA2FA02D0B01B90190010C01CA0142
:10406000A0011124FF27591B99F0593F50F4503EED
:1040700068F11A16F040A22F232F342F4427585FDF
:10408000F3CF469537952795A795F0405395C9F7F7
:104090007EF41F16BA0B620B730B840BBAF09150AF
:1040A000A1F0FF0FBB1F661F771F881FC2F70EC04E
:1040B000BA0F621F731F841F48F487957795679521
:1040C000B795F7959E3F08F0B0CF9395880F08F00D
:1040D0009927EE0F9795879508950E94502108F42F
:1040E00081E008950E9486200C948B210E948421F7
:1040F00058F00E947D2140F029F45F3F29F00C9494
:10410000742151110C94BF210C947A210E949C219E
:1041100068F39923B1F3552391F3951B550BBB27F6
:10412000AA2762177307840738F09F5F5F4F220F3B
:10413000331F441FAA1FA9F335D00E2E3AF0E0E832
:1041400032D091505040E695001CCAF72BD0FE2F7C
:1041500029D0660F771F881FBB1F26173707480710
:10416000AB07B0E809F0BB0B802DBF01FF279358C8
:104170005F4F3AF09E3F510578F00C9474210C94F7
:10418000BF215F3FE4F3983ED4F38695779567951A
:10419000B795F7959F5FC9F7880F911D96958795FD
:1041A00097F90895E1E0660F771F881FBB1F62171C
:1041B00073078407BA0720F0621B730B840BBA0BDA
:1041C000EE1F88F7E09508950E94A42188F09F577C
:1041D00098F0B92F9927B751B0F0E1F0660F771F2B
:1041E000881F991F1AF0BA95C9F714C0B13091F021
:1041F0000E94BE21B1E008950C94BE21672F782F54
:104200008827B85F39F0B93FCCF3869577956795E5
:10421000B395D9F73EF490958095709561957F4F51
:104220008F4F9F4F0895E89409C097FB3EF49095F7
:104230008095709561957F4F8F4F9F4F9923A9F07F
:10424000F92F96E9BB279395F6958795779567950E
:10425000B795F111F8CFFAF4BB0F11F460FF1BC052
:104260006F5F7F4F8F4F9F4F16C0882311F096E9E5
:1042700011C0772321F09EE8872F762F05C0662393
:1042800071F096E8862F70E060E02AF09A95660F4C
:10429000771F881FDAF7880F9695879597F9089505
:1042A000990F0008550FAA0BE0E8FEEF1616170647
:1042B000E807F907C0F012161306E407F50798F0AF
:1042C000621B730B840B950B39F40A2661F0232BC8
:1042D000242B252B21F408950A2609F4A140A69544
:1042E0008FEF811D811D089597F99F6780E870E029
:1042F00060E008959FEF80EC089500240A9416165C
:10430000170618060906089500240A9412161306C3
:10431000140605060895092E0394000C11F4882351
:1043200052F0BB0F40F4BF2B11F460FF04C06F5F6D
:104330007F4F8F4F9F4F089557FD9058440F551F43
:1043400059F05F3F71F04795880F97FB991F61F017
:104350009F3F79F087950895121613061406551F8E
:10436000F2CF4695F1DF08C0161617061806991FFA
:10437000F1CF86957105610508940895E894BB27EF
:1043800066277727CB0197F908950E94502108F4FA
:104390008FEF08950E94DD210C948B210E947D21D6
:1043A00038F00E94842120F0952311F00C947421A0
:1043B0000C947A2111240C94BF210E949C2170F34B
:1043C000959FC1F3950F50E0551F629FF001729FBA
:1043D000BB27F00DB11D639FAA27F00DB11DAA1FC9
:1043E000649F6627B00DA11D661F829F2227B00D16
:1043F000A11D621F739FB00DA11D621F839FA00DA1
:10440000611D221F749F3327A00D611D231F849FF0
:10441000600D211D822F762F6A2F11249F57504047
:104420009AF0F1F088234AF0EE0FFF1FBB1F661FC2
:10443000771F881F91505040A9F79E3F510580F08B
:104440000C9474210C94BF215F3FE4F3983ED4F3A5
:10445000869577956795B795F795E7959F5FC1F72F
:10446000FE2B880F911D9695879597F908950E94C8
:104470005021880B990B089569279627692778277B
:10448000872778270895EE0FFF1F0590F491E02D00
:1044900009940F931F93CF93DF938230910510F40B
:1044A00082E090E0E0918C05F0918D0530E020E015
:1044B000B0E0A0E0309799F42115310509F44AC025
:1044C000281B390B24303105D8F58A819B81611571
:1044D000710589F1FB0193838283FE0111C0408144
:1044E00051810281138148175907E0F04817590795
:1044F00099F4109761F012960C93129713961C93EF
:104500003296CF01DF91CF911F910F9108950093C3
:104510008C0510938D05F4CF2115310551F042170C
:10452000530738F0A901DB019A01BD01DF01F80151
:10453000C1CFEF01F9CF90938D0580938C05CDCF3E
:10454000FE01E20FF31F81939193225031093983C9
:104550002883D7CF20918A0530918B05232B41F4F6
:1045600020910E0130910F0130938B0520938A0525
:1045700020910C0130910D012115310541F42DB729
:104580003EB74091100150911101241B350BE09171
:104590008A05F0918B05E217F307A0F42E1B3F0B61
:1045A0002817390778F0AC014E5F5F4F24173507A5
:1045B00048F04E0F5F1F50938B0540938A058193FF
:1045C00091939FCFF0E0E0E09CCFCF93DF930097F3
:1045D000E9F0FC01329713821282A0918C05B09110
:1045E0008D05ED0130E020E01097A1F420813181AC
:1045F000820F931F20918A0530918B052817390768
:1046000009F061C0F0938B05E0938A05DF91CF91AB
:104610000895EA01CE17DF07E8F54A815B819E0124
:1046200041155105B1F7E901FB83EA83499159919D
:10463000C40FD51FEC17FD0761F4808191810296AC
:10464000840F951FE90199838883828193819B83DD
:104650008A83F0E0E0E012968D919C911397009789
:10466000B9F52D913C911197CD010296820F931FC0
:1046700020918A0530918B052817390739F6309734
:1046800051F510928D0510928C05B0938B05A09377
:104690008A05BCCFD383C28340815181840F951F8B
:1046A000C817D90761F44E5F5F4F88819981480F21
:1046B000591F518340838A819B8193838283211573
:1046C000310509F0B0CFF0938D05E0938C059ECFB6
:1046D000FD01DC01C0CF13821282D7CFFB01DC01C8
:1046E00004C08D910190801921F441505040C8F7C9
:1046F000881B990B0895DC0101C06D934150504017
:10470000E0F70895FB01DC0101900D920020E1F734
:104710000895AEE0B0E0EFE8F3E20C9438260D899E
:104720001E8986E08C831A8309838FEF9FE79E831F
:104730008D83AE01475E5F4F6F89788DCE01019604
:104740000E94AC232F813885020F131FF8011082BD
:104750002E96E4E00C945426ABE0B0E0E2EBF3E2FA
:104760000C942A267C013B018A01FC0117821682E7
:10477000838181FFC8C1CE0101965C01F70193815D
:10478000F30193FD859193FF81913F01882309F403
:1047900053C1853239F493FD859193FF81913F0197
:1047A000853229F4B70190E00E949C25E7CF912C37
:1047B000212C312CFFE1F31538F08B3211F190F4FC
:1047C000803209F1833229F137FC3CC020ED280FFB
:1047D0002A3050F536FE20C08AE0989E200D112424
:1047E000922E06C08D3291F0803371F7689430F8C4
:1047F000F30193FD859193FF81913F018111DACF00
:1048000021C0689431F8689432F8F2CF689433F894
:10481000EFCF689434F8ECCFEAE02E9E200D1124FF
:10482000222E689435F8E4CF8E3229F436FC04C188
:10483000689436F8DDCF8C3619F4689437F8D8CF01
:104840008836B1F2982F9F7D95549330E0F08336EF
:10485000A1F18337C1F1833509F063C02801F2E08B
:104860004F0E511CF801C080D180692D70E036FCDC
:1048700002C06FEF7FEFC6010E9486254C0168944D
:1048800037F882010AC00C5F1F4FFFE3F9838824C9
:104890008394912C6501E89437F833FE2DC0522C97
:1048A0008114910471F5552009F468CFB70180E2B5
:1048B00090E00E949C255A94F6CFF801808189836C
:1048C0000E5F1F4FE4CF2801F2E04F0E511CF8019C
:1048D000C080D180692D70E036FC02C06FEF7FEFA1
:1048E000C6010E9491254C018201D5CFB70180E21B
:1048F00090E00E949C252A942814190409F0B0F72E
:10490000CECFF60137FC859137FE81916F01B7015B
:1049100090E00E949C2551105A94F1E08F1A910862
:10492000BFCF843619F0893609F077C0F80137FE19
:104930006BC060817181828193810C5F1F4FF32D69
:10494000FF763F2E97FF09C09095809570956195F1
:104950007F4F8F4F9F4F689437F82AE030E0A501D2
:104960000E94CC25C82ECA188C2C432C36FE0CC0B5
:10497000E89440F8C91440F434FE05C032FC03C08A
:10498000F32DFE7E4F2E892C44FE95C0FE01EC0DCA
:10499000F11D8081803309F087C0242D297E422EAD
:1049A000842D8870582E43FC95C040FE8FC09C2CEF
:1049B000821418F42C0C922C981844FE91C0B70164
:1049C00080E390E00E949C2542FE09C088E790E0C9
:1049D00041FE02C088E590E0B7010E949C25C91401
:1049E00008F48AC0CA94D12C9FEFC91AD90ACA0CFC
:1049F000DB1CF60182916F01B70190E00E949C25BB
:104A0000AC14BD04B1F74FCF60817181072E000C4B
:104A1000880B990B0E5F1F4F92CFD32CE894D4F8DC
:104A20002AE030E0853739F1232D297FD22E8F36C9
:104A300001F148F48835A9F0F701868197812B961A
:104A4000E2E10C944626803749F08837A9F7D4FE76
:104A500002C06894D2F820E130E00DC06894D4F828
:104A6000F6CF34FE03C0822F8660D82E20E132E0DC
:104A700002C028E030E0F801D7FE0FC060817181EC
:104A8000828193810C5F1F4FA5010E94CC25C82E07
:104A9000CA183D2CE89437F867CF6081718190E0A7
:104AA00080E00E5F1F4FF0CF42FC02C0839478CFAE
:104AB0008394839475CF842D867809F471CFF6CFD3
:104AC000B70180E290E00E949C2583948214C0F399
:104AD000512C73CF522C5818821408F46ECFF8CF93
:104AE000842D867809F47BCF8BE241FE80E247FC7F
:104AF0008DE2B70190E071CFB70180E390E00E94B2
:104B00009C259A946CCF8FEF9FEF99CFFC01059075
:104B1000615070400110D8F7809590958E0F9F1FBF
:104B20000895FC016150704001900110D8F7809504
:104B300090958E0F9F1F08950F931F93CF93DF9330
:104B4000182F092FEB018B8181FD09C01FEF0FEF9B
:104B5000812F902FDF91CF911F910F91089582FFA8
:104B600014C02E813F818C819D81281739073CF428
:104B7000E881F981CF0101969983888310838E8122
:104B80009F8101969F838E83E3CFE885F985812FEE
:104B90000995892BA1F3DACFFA01AA27283051F120
:104BA000203181F1E8946F936E7F6E5F7F4F8F4F5E
:104BB0009F4FAF4FB1E03ED0B4E03CD0670F781FBD
:104BC000891F9A1FA11D680F791F8A1F911DA11DA2
:104BD0006A0F711D811D911DA11D20D009F46894DB
:104BE0003F912AE0269F11243019305D3193DEF683
:104BF000CF010895462F4770405D4193B3E00FD039
:104C0000C9F7F6CF462F4F70405D4A3318F0495D23
:104C100031FD4052419302D0A9F7EACFB4E0A69506
:104C20009795879577956795BA95C9F70097610528
:104C3000710508959B01AC010A2E0694579547957E
:104C400037952795BA95C9F7620F731F841F951F73
:104C5000A01D08952F923F924F925F926F927F9284
:104C60008F929F92AF92BF92CF92DF92EF92FF927C
:104C70000F931F93CF93DF93CDB7DEB7CA1BDB0B28
:104C80000FB6F894DEBF0FBECDBF09942A883988CD
:104C900048885F846E847D848C849B84AA84B984D4
:104CA000C884DF80EE80FD800C811B81AA81B981E0
:104CB000CE0FD11D0FB6F894DEBF0FBECDBFED01F4
:104CC0000895F894FFCF00C0DEADBEEFFEED010009
:104CD000000000008E05800001005E00000020033F
:104CE0002C0335033E030000010002000300000016
:104CF0000000DB03CA0C7104BF00BB00BE0E9706A8
:104D0000BA0B550AC9081A0464123D09A60F9F0E72
:104D10006904590455045104010200000300000015
:104D2000006001C000ED00AD011E01FC001001009B
:104D3000000000FC03040DC10CAC0CC60DE80EA66F
:104D400006380BD712020F0409E20887048F040EFD
:104D50001984048204F1037804350F6B0F0B0F7470
:104D60000400000000E005C00071047004000000B1
:104D700000BD136E616E00696E66006F7666000D91
:104D80000A0057495A6E6574003139322E3136386F
:104D90002E342E3100636F6E6E656374656420740B
:104DA0006F2000474554202F257320485454502F1E
:104DB000312E3100636F6E6E656374696F6E2066AD
:104DC00061696C656400646973636F6E6E656374BA
:104DD000696E672E00526563656976656420002000
:104DE000627974657320696E20002C20726174658D
:104DF000203D2000206B62797465732F7365636FAB
:104E00006E6400496E697469616C697A65204574E5
:104E10006865726E657420776974682044484350F1
:104E20003A00444843502061737369676E6564209B
:104E3000495020004661696C656420746F20636F7F
:104E40006E6669677572652045746865726E657413
:104E5000207573696E672044484350004574686547
:104E6000726E657420736869656C64207761732065
:104E70006E6F7420666F756E642E536F7272792C2C
:104E80002063616E27742072756E20776974686F75
:104E900075742068617264776172652E203A28000B
:104EA00045746865726E6574206361626C65206923
:104EB00073206E6F7420636F6E6E65637465642E0D
:104EC0000054454D50202843293A0048554D20288C
:104ED00025293A00505220285061293A00414C546B
:104EE00020286D293A0074656D7065726174757261
:104EF000650068756D696469747900616C746974C2
:0E4F00007564650070726573737572650000EC
:107E0000112484B714BE81FFF0D085E080938100F7
:107E100082E08093C00088E18093C10086E0809377
:107E2000C20080E18093C4008EE0C9D0259A86E02C
:107E300020E33CEF91E0309385002093840096BBD3
:107E4000B09BFECF1D9AA8958150A9F7CC24DD24C4
:107E500088248394B5E0AB2EA1E19A2EF3E0BF2EE7
:107E6000A2D0813461F49FD0082FAFD0023811F036
:107E7000013811F484E001C083E08DD089C08234E0
:107E800011F484E103C0853419F485E0A6D080C0E4
:107E9000853579F488D0E82EFF2485D0082F10E0AE
:107EA000102F00270E291F29000F111F8ED06801E7
:107EB0006FC0863521F484E090D080E0DECF843638
:107EC00009F040C070D06FD0082F6DD080E0C81688
:107ED00080E7D80618F4F601B7BEE895C0E0D1E017
:107EE00062D089930C17E1F7F0E0CF16F0E7DF06D8
:107EF00018F0F601B7BEE89568D007B600FCFDCFD4
:107F0000A601A0E0B1E02C9130E011968C91119780
:107F100090E0982F8827822B932B1296FA010C0160
:107F200087BEE89511244E5F5F4FF1E0A038BF0790
:107F300051F7F601A7BEE89507B600FCFDCF97BE46
:107F4000E89526C08437B1F42ED02DD0F82E2BD052
:107F50003CD0F601EF2C8F010F5F1F4F84911BD097
:107F6000EA94F801C1F70894C11CD11CFA94CF0C13
:107F7000D11C0EC0853739F428D08EE10CD085E9AC
:107F80000AD08FE07ACF813511F488E018D01DD067
:107F900080E101D065CF982F8091C00085FFFCCF94
:107FA0009093C60008958091C00087FFFCCF809118
:107FB000C00084FD01C0A8958091C6000895E0E648
:107FC000F0E098E1908380830895EDDF803219F02E
:107FD00088E0F5DFFFCF84E1DECF1F93182FE3DFCA
:107FE0001150E9F7F2DF1F91089580E0E8DFEE27F6
:047FF000FF270994CA
:027FFE00040479
:00000001FF
